{
  "contractName": "CClink",
  "abi": [
    {
      "constant": true,
      "inputs": [],
      "name": "owner",
      "outputs": [
        {
          "name": "",
          "type": "address"
        }
      ],
      "payable": false,
      "stateMutability": "view",
      "type": "function"
    },
    {
      "constant": true,
      "inputs": [],
      "name": "isOwner",
      "outputs": [
        {
          "name": "",
          "type": "bool"
        }
      ],
      "payable": false,
      "stateMutability": "view",
      "type": "function"
    },
    {
      "constant": true,
      "inputs": [],
      "name": "CityClash",
      "outputs": [
        {
          "name": "",
          "type": "address"
        }
      ],
      "payable": false,
      "stateMutability": "view",
      "type": "function"
    },
    {
      "constant": false,
      "inputs": [],
      "name": "createVillage",
      "outputs": [
        {
          "name": "",
          "type": "address"
        }
      ],
      "payable": false,
      "stateMutability": "nonpayable",
      "type": "function"
    },
    {
      "constant": false,
      "inputs": [
        {
          "name": "_village",
          "type": "address"
        }
      ],
      "name": "destroyVillage",
      "outputs": [
        {
          "name": "",
          "type": "bool"
        }
      ],
      "payable": false,
      "stateMutability": "nonpayable",
      "type": "function"
    },
    {
      "constant": false,
      "inputs": [
        {
          "name": "initialSupply",
          "type": "uint256"
        },
        {
          "name": "tokenName",
          "type": "string"
        },
        {
          "name": "decimalUnits",
          "type": "uint8"
        },
        {
          "name": "tokenSymbol",
          "type": "string"
        },
        {
          "name": "_Owner",
          "type": "address"
        }
      ],
      "name": "createToken",
      "outputs": [
        {
          "name": "",
          "type": "address"
        }
      ],
      "payable": false,
      "stateMutability": "nonpayable",
      "type": "function"
    },
    {
      "constant": false,
      "inputs": [
        {
          "name": "Game",
          "type": "address"
        }
      ],
      "name": "changeCCAddress",
      "outputs": [],
      "payable": false,
      "stateMutability": "nonpayable",
      "type": "function"
    }
  ],
  "bytecode": "0x6080604052336000806101000a81548173ffffffffffffffffffffffffffffffffffffffff021916908373ffffffffffffffffffffffffffffffffffffffff160217905550614ab6806100536000396000f3fe608060405234801561001057600080fd5b506004361061007d5760003560e01c80638e6c660c1161005b5780638e6c660c146102f15780638f32d59b1461033b578063ea718bfa1461035d578063f4d7f730146103a75761007d565b80635fb8087e1461008257806374e9c9391461024b5780638da5cb5b146102a7575b600080fd5b610209600480360360a081101561009857600080fd5b8101908080359060200190929190803590602001906401000000008111156100bf57600080fd5b8201836020820111156100d157600080fd5b803590602001918460018302840111640100000000831117156100f357600080fd5b91908080601f016020809104026020016040519081016040528093929190818152602001838380828437600081840152601f19601f820116905080830192505050505050509192919290803560ff1690602001909291908035906020019064010000000081111561016357600080fd5b82018360208201111561017557600080fd5b8035906020019184600183028401116401000000008311171561019757600080fd5b91908080601f016020809104026020016040519081016040528093929190818152602001838380828437600081840152601f19601f820116905080830192505050505050509192919290803573ffffffffffffffffffffffffffffffffffffffff1690602001909291905050506103eb565b604051808273ffffffffffffffffffffffffffffffffffffffff1673ffffffffffffffffffffffffffffffffffffffff16815260200191505060405180910390f35b61028d6004803603602081101561026157600080fd5b81019080803573ffffffffffffffffffffffffffffffffffffffff16906020019092919050505061060b565b604051808215151515815260200191505060405180910390f35b6102af610739565b604051808273ffffffffffffffffffffffffffffffffffffffff1673ffffffffffffffffffffffffffffffffffffffff16815260200191505060405180910390f35b6102f9610762565b604051808273ffffffffffffffffffffffffffffffffffffffff1673ffffffffffffffffffffffffffffffffffffffff16815260200191505060405180910390f35b61034361088c565b604051808215151515815260200191505060405180910390f35b6103656108e3565b604051808273ffffffffffffffffffffffffffffffffffffffff1673ffffffffffffffffffffffffffffffffffffffff16815260200191505060405180910390f35b6103e9600480360360208110156103bd57600080fd5b81019080803573ffffffffffffffffffffffffffffffffffffffff169060200190929190505050610909565b005b60003373ffffffffffffffffffffffffffffffffffffffff16600160009054906101000a900473ffffffffffffffffffffffffffffffffffffffff1673ffffffffffffffffffffffffffffffffffffffff16146104b0576040517f08c379a00000000000000000000000000000000000000000000000000000000081526004018080602001828103825260108152602001807f55736572206973206e6f742047616d650000000000000000000000000000000081525060200191505060405180910390fd5b85858585856040516104c1906109c7565b80868152602001806020018560ff1660ff168152602001806020018473ffffffffffffffffffffffffffffffffffffffff1673ffffffffffffffffffffffffffffffffffffffff168152602001838103835287818151815260200191508051906020019080838360005b8381101561054657808201518184015260208101905061052b565b50505050905090810190601f1680156105735780820380516001836020036101000a031916815260200191505b50838103825285818151815260200191508051906020019080838360005b838110156105ac578082015181840152602081019050610591565b50505050905090810190601f1680156105d95780820380516001836020036101000a031916815260200191505b50975050505050505050604051809103906000f0801580156105ff573d6000803e3d6000fd5b50905095945050505050565b60003373ffffffffffffffffffffffffffffffffffffffff16600160009054906101000a900473ffffffffffffffffffffffffffffffffffffffff1673ffffffffffffffffffffffffffffffffffffffff16146106d0576040517f08c379a00000000000000000000000000000000000000000000000000000000081526004018080602001828103825260108152602001807f55736572206973206e6f742047616d650000000000000000000000000000000081525060200191505060405180910390fd5b8173ffffffffffffffffffffffffffffffffffffffff166330ca92bc6040518163ffffffff1660e01b8152600401600060405180830381600087803b15801561071857600080fd5b505af115801561072c573d6000803e3d6000fd5b5050505060019050919050565b60008060009054906101000a900473ffffffffffffffffffffffffffffffffffffffff16905090565b60003373ffffffffffffffffffffffffffffffffffffffff16600160009054906101000a900473ffffffffffffffffffffffffffffffffffffffff1673ffffffffffffffffffffffffffffffffffffffff1614610827576040517f08c379a00000000000000000000000000000000000000000000000000000000081526004018080602001828103825260108152602001807f55736572206973206e6f742047616d650000000000000000000000000000000081525060200191505060405180910390fd5b33604051610834906109d4565b808273ffffffffffffffffffffffffffffffffffffffff1673ffffffffffffffffffffffffffffffffffffffff168152602001915050604051809103906000f080158015610886573d6000803e3d6000fd5b50905090565b60008060009054906101000a900473ffffffffffffffffffffffffffffffffffffffff1673ffffffffffffffffffffffffffffffffffffffff163373ffffffffffffffffffffffffffffffffffffffff1614905090565b600160009054906101000a900473ffffffffffffffffffffffffffffffffffffffff1681565b61091161088c565b610983576040517f08c379a00000000000000000000000000000000000000000000000000000000081526004018080602001828103825260208152602001807f4f776e61626c653a2063616c6c6572206973206e6f7420746865206f776e657281525060200191505060405180910390fd5b80600160006101000a81548173ffffffffffffffffffffffffffffffffffffffff021916908373ffffffffffffffffffffffffffffffffffffffff16021790555050565b611e2e806109e283390190565b61227b806128108339019056fe60806040523480156200001157600080fd5b5060405162001e2e38038062001e2e833981018060405260a08110156200003757600080fd5b810190808051906020019092919080516401000000008111156200005a57600080fd5b828101905060208101848111156200007157600080fd5b81518560018202830111640100000000821117156200008f57600080fd5b5050929190602001805190602001909291908051640100000000811115620000b657600080fd5b82810190506020810184811115620000cd57600080fd5b8151856001820283011164010000000082111715620000eb57600080fd5b50509291906020018051906020019092919050505084600560008373ffffffffffffffffffffffffffffffffffffffff1673ffffffffffffffffffffffffffffffffffffffff1681526020019081526020016000208190555084600381905550836000908051906020019062000163929190620001e4565b5081600190805190602001906200017c929190620001e4565b5082600260006101000a81548160ff021916908360ff16021790555080600460006101000a81548173ffffffffffffffffffffffffffffffffffffffff021916908373ffffffffffffffffffffffffffffffffffffffff160217905550505050505062000293565b828054600181600116156101000203166002900490600052602060002090601f016020900481019282601f106200022757805160ff191683800117855562000258565b8280016001018555821562000258579182015b82811115620002575782518255916020019190600101906200023a565b5b5090506200026791906200026b565b5090565b6200029091905b808211156200028c57600081600090555060010162000272565b5090565b90565b611b8b80620002a36000396000f3fe6080604052600436106100e85760003560e01c80636623fc461161008a578063a9059cbb11610059578063a9059cbb14610509578063cd4217c11461057c578063d7a78db8146105e1578063dd62ed3e14610634576100e8565b80636623fc461461036a57806370a08231146103bd5780638da5cb5b1461042257806395d89b4114610479576100e8565b806323b872dd116100c657806323b872dd14610218578063313ce567146102ab5780633bed33ce146102dc57806342966c6814610317576100e8565b806306fdde03146100ea578063095ea7b31461017a57806318160ddd146101ed575b005b3480156100f657600080fd5b506100ff6106b9565b6040518080602001828103825283818151815260200191508051906020019080838360005b8381101561013f578082015181840152602081019050610124565b50505050905090810190601f16801561016c5780820380516001836020036101000a031916815260200191505b509250505060405180910390f35b34801561018657600080fd5b506101d36004803603604081101561019d57600080fd5b81019080803573ffffffffffffffffffffffffffffffffffffffff16906020019092919080359060200190929190505050610757565b604051808215151515815260200191505060405180910390f35b3480156101f957600080fd5b50610202610859565b6040518082815260200191505060405180910390f35b34801561022457600080fd5b506102916004803603606081101561023b57600080fd5b81019080803573ffffffffffffffffffffffffffffffffffffffff169060200190929190803573ffffffffffffffffffffffffffffffffffffffff1690602001909291908035906020019092919050505061085f565b604051808215151515815260200191505060405180910390f35b3480156102b757600080fd5b506102c0610dac565b604051808260ff1660ff16815260200191505060405180910390f35b3480156102e857600080fd5b50610315600480360360208110156102ff57600080fd5b8101908080359060200190929190505050610dbf565b005b34801561032357600080fd5b506103506004803603602081101561033a57600080fd5b8101908080359060200190929190505050610eee565b604051808215151515815260200191505060405180910390f35b34801561037657600080fd5b506103a36004803603602081101561038d57600080fd5b8101908080359060200190929190505050611122565b604051808215151515815260200191505060405180910390f35b3480156103c957600080fd5b5061040c600480360360208110156103e057600080fd5b81019080803573ffffffffffffffffffffffffffffffffffffffff1690602001909291905050506113d0565b6040518082815260200191505060405180910390f35b34801561042e57600080fd5b506104376113e8565b604051808273ffffffffffffffffffffffffffffffffffffffff1673ffffffffffffffffffffffffffffffffffffffff16815260200191505060405180910390f35b34801561048557600080fd5b5061048e61140e565b6040518080602001828103825283818151815260200191508051906020019080838360005b838110156104ce5780820151818401526020810190506104b3565b50505050905090810190601f1680156104fb5780820380516001836020036101000a031916815260200191505b509250505060405180910390f35b34801561051557600080fd5b506105626004803603604081101561052c57600080fd5b81019080803573ffffffffffffffffffffffffffffffffffffffff169060200190929190803590602001909291905050506114ac565b604051808215151515815260200191505060405180910390f35b34801561058857600080fd5b506105cb6004803603602081101561059f57600080fd5b81019080803573ffffffffffffffffffffffffffffffffffffffff169060200190929190505050611814565b6040518082815260200191505060405180910390f35b3480156105ed57600080fd5b5061061a6004803603602081101561060457600080fd5b810190808035906020019092919050505061182c565b604051808215151515815260200191505060405180910390f35b34801561064057600080fd5b506106a36004803603604081101561065757600080fd5b81019080803573ffffffffffffffffffffffffffffffffffffffff169060200190929190803573ffffffffffffffffffffffffffffffffffffffff169060200190929190505050611ada565b6040518082815260200191505060405180910390f35b60008054600181600116156101000203166002900480601f01602080910402602001604051908101604052809291908181526020018280546001816001161561010002031660029004801561074f5780601f106107245761010080835404028352916020019161074f565b820191906000526020600020905b81548152906001019060200180831161073257829003601f168201915b505050505081565b60008082116107ce576040517f08c379a000000000000000000000000000000000000000000000000000000000815260040180806020018281038252601f8152602001807f56616c7565206d7573742062652067726561746572207468616e207a65726f0081525060200191505060405180910390fd5b81600760003373ffffffffffffffffffffffffffffffffffffffff1673ffffffffffffffffffffffffffffffffffffffff16815260200190815260200160002060008573ffffffffffffffffffffffffffffffffffffffff1673ffffffffffffffffffffffffffffffffffffffff168152602001908152602001600020819055506001905092915050565b60035481565b60008073ffffffffffffffffffffffffffffffffffffffff168373ffffffffffffffffffffffffffffffffffffffff161415610903576040517f08c379a00000000000000000000000000000000000000000000000000000000081526004018080602001828103825260128152602001807f557365206275726e282920696e7374656164000000000000000000000000000081525060200191505060405180910390fd5b60008211610979576040517f08c379a000000000000000000000000000000000000000000000000000000000815260040180806020018281038252601f8152602001807f56616c7565206d7573742062652067726561746572207468616e207a65726f0081525060200191505060405180910390fd5b81600560008673ffffffffffffffffffffffffffffffffffffffff1673ffffffffffffffffffffffffffffffffffffffff168152602001908152602001600020541015610a2e576040517f08c379a00000000000000000000000000000000000000000000000000000000081526004018080602001828103825260128152602001807f696e73756666696369656e742066756e6473000000000000000000000000000081525060200191505060405180910390fd5b600760008573ffffffffffffffffffffffffffffffffffffffff1673ffffffffffffffffffffffffffffffffffffffff16815260200190815260200160002060003373ffffffffffffffffffffffffffffffffffffffff1673ffffffffffffffffffffffffffffffffffffffff16815260200190815260200160002054821015610b03576040517f08c379a0000000000000000000000000000000000000000000000000000000008152600401808060200182810382526027815260200180611b396027913960400191505060405180910390fd5b610b5582600560008773ffffffffffffffffffffffffffffffffffffffff1673ffffffffffffffffffffffffffffffffffffffff16815260200190815260200160002054611aff90919063ffffffff16565b600560008673ffffffffffffffffffffffffffffffffffffffff1673ffffffffffffffffffffffffffffffffffffffff16815260200190815260200160002081905550610bea82600560008673ffffffffffffffffffffffffffffffffffffffff1673ffffffffffffffffffffffffffffffffffffffff16815260200190815260200160002054611b1990919063ffffffff16565b600560008573ffffffffffffffffffffffffffffffffffffffff1673ffffffffffffffffffffffffffffffffffffffff16815260200190815260200160002081905550610cbc82600760008773ffffffffffffffffffffffffffffffffffffffff1673ffffffffffffffffffffffffffffffffffffffff16815260200190815260200160002060003373ffffffffffffffffffffffffffffffffffffffff1673ffffffffffffffffffffffffffffffffffffffff16815260200190815260200160002054611aff90919063ffffffff16565b600760008673ffffffffffffffffffffffffffffffffffffffff1673ffffffffffffffffffffffffffffffffffffffff16815260200190815260200160002060003373ffffffffffffffffffffffffffffffffffffffff1673ffffffffffffffffffffffffffffffffffffffff168152602001908152602001600020819055508273ffffffffffffffffffffffffffffffffffffffff168473ffffffffffffffffffffffffffffffffffffffff167fddf252ad1be2c89b69c2b068fc378daa952ba7f163c4a11628f55a4df523b3ef846040518082815260200191505060405180910390a3600190509392505050565b600260009054906101000a900460ff1681565b600460009054906101000a900473ffffffffffffffffffffffffffffffffffffffff1673ffffffffffffffffffffffffffffffffffffffff163373ffffffffffffffffffffffffffffffffffffffff1614610e82576040517f08c379a00000000000000000000000000000000000000000000000000000000081526004018080602001828103825260098152602001807f4e6f74206f776e6572000000000000000000000000000000000000000000000081525060200191505060405180910390fd5b600460009054906101000a900473ffffffffffffffffffffffffffffffffffffffff1673ffffffffffffffffffffffffffffffffffffffff166108fc829081150290604051600060405180830381858888f19350505050158015610eea573d6000803e3d6000fd5b5050565b600081600560003373ffffffffffffffffffffffffffffffffffffffff1673ffffffffffffffffffffffffffffffffffffffff168152602001908152602001600020541015610fa5576040517f08c379a00000000000000000000000000000000000000000000000000000000081526004018080602001828103825260128152602001807f696e73756666696369656e742066756e6473000000000000000000000000000081525060200191505060405180910390fd5b6000821161101b576040517f08c379a000000000000000000000000000000000000000000000000000000000815260040180806020018281038252601f8152602001807f56616c7565206d7573742062652067726561746572207468616e207a65726f0081525060200191505060405180910390fd5b61106d82600560003373ffffffffffffffffffffffffffffffffffffffff1673ffffffffffffffffffffffffffffffffffffffff16815260200190815260200160002054611aff90919063ffffffff16565b600560003373ffffffffffffffffffffffffffffffffffffffff1673ffffffffffffffffffffffffffffffffffffffff168152602001908152602001600020819055506110c582600354611aff90919063ffffffff16565b6003819055503373ffffffffffffffffffffffffffffffffffffffff167fcc16f5dbb4873280815c1ee09dbd06736cffcc184412cf7a71a0fdb75d397ca5836040518082815260200191505060405180910390a260019050919050565b600081600660003373ffffffffffffffffffffffffffffffffffffffff1673ffffffffffffffffffffffffffffffffffffffff1681526020019081526020016000205410156111d9576040517f08c379a00000000000000000000000000000000000000000000000000000000081526004018080602001828103825260128152602001807f696e73756666696369656e742066756e6473000000000000000000000000000081525060200191505060405180910390fd5b6000821161124f576040517f08c379a000000000000000000000000000000000000000000000000000000000815260040180806020018281038252601f8152602001807f56616c7565206d7573742062652067726561746572207468616e207a65726f0081525060200191505060405180910390fd5b6112a182600660003373ffffffffffffffffffffffffffffffffffffffff1673ffffffffffffffffffffffffffffffffffffffff16815260200190815260200160002054611aff90919063ffffffff16565b600660003373ffffffffffffffffffffffffffffffffffffffff1673ffffffffffffffffffffffffffffffffffffffff1681526020019081526020016000208190555061133682600560003373ffffffffffffffffffffffffffffffffffffffff1673ffffffffffffffffffffffffffffffffffffffff16815260200190815260200160002054611b1990919063ffffffff16565b600560003373ffffffffffffffffffffffffffffffffffffffff1673ffffffffffffffffffffffffffffffffffffffff168152602001908152602001600020819055503373ffffffffffffffffffffffffffffffffffffffff167f2cfce4af01bcb9d6cf6c84ee1b7c491100b8695368264146a94d71e10a63083f836040518082815260200191505060405180910390a260019050919050565b60056020528060005260406000206000915090505481565b600460009054906101000a900473ffffffffffffffffffffffffffffffffffffffff1681565b60018054600181600116156101000203166002900480601f0160208091040260200160405190810160405280929190818152602001828054600181600116156101000203166002900480156114a45780601f10611479576101008083540402835291602001916114a4565b820191906000526020600020905b81548152906001019060200180831161148757829003601f168201915b505050505081565b60008073ffffffffffffffffffffffffffffffffffffffff168373ffffffffffffffffffffffffffffffffffffffff161415611550576040517f08c379a00000000000000000000000000000000000000000000000000000000081526004018080602001828103825260128152602001807f557365206275726e282920696e7374656164000000000000000000000000000081525060200191505060405180910390fd5b600082116115c6576040517f08c379a000000000000000000000000000000000000000000000000000000000815260040180806020018281038252601f8152602001807f56616c7565206d7573742062652067726561746572207468616e207a65726f0081525060200191505060405180910390fd5b81600560003373ffffffffffffffffffffffffffffffffffffffff1673ffffffffffffffffffffffffffffffffffffffff16815260200190815260200160002054101561167b576040517f08c379a00000000000000000000000000000000000000000000000000000000081526004018080602001828103825260128152602001807f696e73756666696369656e742066756e6473000000000000000000000000000081525060200191505060405180910390fd5b6116cd82600560003373ffffffffffffffffffffffffffffffffffffffff1673ffffffffffffffffffffffffffffffffffffffff16815260200190815260200160002054611aff90919063ffffffff16565b600560003373ffffffffffffffffffffffffffffffffffffffff1673ffffffffffffffffffffffffffffffffffffffff1681526020019081526020016000208190555061176282600560008673ffffffffffffffffffffffffffffffffffffffff1673ffffffffffffffffffffffffffffffffffffffff16815260200190815260200160002054611b1990919063ffffffff16565b600560008573ffffffffffffffffffffffffffffffffffffffff1673ffffffffffffffffffffffffffffffffffffffff168152602001908152602001600020819055508273ffffffffffffffffffffffffffffffffffffffff163373ffffffffffffffffffffffffffffffffffffffff167fddf252ad1be2c89b69c2b068fc378daa952ba7f163c4a11628f55a4df523b3ef846040518082815260200191505060405180910390a36001905092915050565b60066020528060005260406000206000915090505481565b600081600560003373ffffffffffffffffffffffffffffffffffffffff1673ffffffffffffffffffffffffffffffffffffffff1681526020019081526020016000205410156118e3576040517f08c379a00000000000000000000000000000000000000000000000000000000081526004018080602001828103825260128152602001807f696e73756666696369656e742066756e6473000000000000000000000000000081525060200191505060405180910390fd5b60008211611959576040517f08c379a000000000000000000000000000000000000000000000000000000000815260040180806020018281038252601f8152602001807f56616c7565206d7573742062652067726561746572207468616e207a65726f0081525060200191505060405180910390fd5b6119ab82600560003373ffffffffffffffffffffffffffffffffffffffff1673ffffffffffffffffffffffffffffffffffffffff16815260200190815260200160002054611aff90919063ffffffff16565b600560003373ffffffffffffffffffffffffffffffffffffffff1673ffffffffffffffffffffffffffffffffffffffff16815260200190815260200160002081905550611a4082600660003373ffffffffffffffffffffffffffffffffffffffff1673ffffffffffffffffffffffffffffffffffffffff16815260200190815260200160002054611aff90919063ffffffff16565b600660003373ffffffffffffffffffffffffffffffffffffffff1673ffffffffffffffffffffffffffffffffffffffff168152602001908152602001600020819055503373ffffffffffffffffffffffffffffffffffffffff167ff97a274face0b5517365ad396b1fdba6f68bd3135ef603e44272adba3af5a1e0836040518082815260200191505060405180910390a260019050919050565b6007602052816000526040600020602052806000526040600020600091509150505481565b600082821115611b0e57600080fd5b818303905092915050565b600080828401905083811015611b2e57600080fd5b809150509291505056fe5472616e73666572206e6f7420616c6c6f7765642066726f6d207468697320636f6e7472616374a165627a7a72305820e99d6c8321194f4d155d7c8546a82b863cb0207724ba714c0222dcbc4eee37e00029608060405234801561001057600080fd5b5060405160208061227b8339810180604052602081101561003057600080fd5b8101908080519060200190929190505050336000806101000a81548173ffffffffffffffffffffffffffffffffffffffff021916908373ffffffffffffffffffffffffffffffffffffffff16021790555080600f60006101000a81548173ffffffffffffffffffffffffffffffffffffffff021916908373ffffffffffffffffffffffffffffffffffffffff1602179055506001806002018190555060018060030181905550426001600701819055505061218b806100f06000396000f3fe608060405234801561001057600080fd5b50600436106100ea5760003560e01c80638f32d59b1161008c578063cf87e97011610066578063cf87e9701461035c578063e2a0356d146103a0578063fd84204e146103e9578063ff25adfd14610407576100ea565b80638f32d59b146102a95780638fbb2ef2146102cb578063a9422ae8146102e9576100ea565b80631f86ac8a116100c85780631f86ac8a146101db57806330ca92bc146102135780635b7563781461021d5780638da5cb5b1461025f576100ea565b806311e666b9146100ef57806319c8710c1461013e5780631ba6d17714610176575b600080fd5b6100f7610425565b604051808981526020018881526020018781526020018681526020018581526020018481526020018381526020018281526020019850505050505050505060405180910390f35b6101746004803603604081101561015457600080fd5b81019080803590602001909291908035906020019092919050505061045b565b005b6101a26004803603602081101561018c57600080fd5b8101908080359060200190929190505050610d69565b60405180878152602001868152602001858152602001848152602001838152602001828152602001965050505050505060405180910390f35b610211600480360360408110156101f157600080fd5b810190808035906020019092919080359060200190929190505050610da5565b005b61021b61144b565b005b6102496004803603602081101561023357600080fd5b8101908080359060200190929190505050611500565b6040518082815260200191505060405180910390f35b610267611523565b604051808273ffffffffffffffffffffffffffffffffffffffff1673ffffffffffffffffffffffffffffffffffffffff16815260200191505060405180910390f35b6102b161154c565b604051808215151515815260200191505060405180910390f35b6102d36115a3565b6040518082815260200191505060405180910390f35b61033f600480360360608110156102ff57600080fd5b81019080803573ffffffffffffffffffffffffffffffffffffffff16906020019092919080359060200190929190803590602001909291905050506115a9565b604051808381526020018281526020019250505060405180910390f35b61039e6004803603602081101561037257600080fd5b81019080803573ffffffffffffffffffffffffffffffffffffffff1690602001909291905050506118a7565b005b6103cc600480360360208110156103b657600080fd5b8101908080359060200190929190505050611e52565b604051808381526020018281526020019250505060405180910390f35b6103f1611e92565b6040518082815260200191505060405180910390f35b61040f611e98565b6040518082815260200191505060405180910390f35b60018060000154908060010154908060020154908060030154908060040154908060050154908060060154908060070154905088565b3373ffffffffffffffffffffffffffffffffffffffff16600f60009054906101000a900473ffffffffffffffffffffffffffffffffffffffff1673ffffffffffffffffffffffffffffffffffffffff1663cf192ea2306040518263ffffffff1660e01b8152600401808273ffffffffffffffffffffffffffffffffffffffff1673ffffffffffffffffffffffffffffffffffffffff16815260200191505060206040518083038186803b15801561051157600080fd5b505afa158015610525573d6000803e3d6000fd5b505050506040513d602081101561053b57600080fd5b810190808051906020019092919050505073ffffffffffffffffffffffffffffffffffffffff16146105d5576040517f08c379a00000000000000000000000000000000000000000000000000000000081526004018080602001828103825260198152602001807f55736572206973206e6f742056696c6c616765206f776e65720000000000000081525060200191505060405180910390fd5b6105e9600182611e9e90919063ffffffff16565b600160080160008481526020019081526020016000206000015414610676576040517f08c379a000000000000000000000000000000000000000000000000000000000815260040180806020018281038252600f8152602001807f496e76616c69642055706772616465000000000000000000000000000000000081525060200191505060405180910390fd5b6000806000806000806000806000600f60009054906101000a900473ffffffffffffffffffffffffffffffffffffffff1673ffffffffffffffffffffffffffffffffffffffff16638410b8c68c8c6040518363ffffffff1660e01b815260040180838152602001828152602001925050506101206040518083038186803b15801561070057600080fd5b505afa158015610714573d6000803e3d6000fd5b505050506040513d61012081101561072b57600080fd5b8101908080519060200190929190805190602001909291908051906020019092919080519060200190929190805190602001909291908051906020019092919080519060200190929190805190602001909291908051906020019092919050505098509850985098509850985098509850985060008111610814576040517f08c379a00000000000000000000000000000000000000000000000000000000081526004018080602001828103825260158152602001807f6e6f20757067726164657320617661696c61626c65000000000000000000000081525060200191505060405180910390fd5b42600160080160008d815260200190815260200160002060010154106108a2576040517f08c379a00000000000000000000000000000000000000000000000000000000081526004018080602001828103825260148152602001807f557067726164696e6720696e2050726f6365737300000000000000000000000081525060200191505060405180910390fd5b87600160080160008b8152602001908152602001600020600001541015610931576040517f08c379a000000000000000000000000000000000000000000000000000000000815260040180806020018281038252601c8152602001807f4275696c64696e6720526571756972656d656e74206e6f74206d65740000000081525060200191505060405180910390fd5b610939611eb8565b8660016000015410158015610952575085600180015410155b6109c4576040517f08c379a000000000000000000000000000000000000000000000000000000000815260040180806020018281038252601d8152602001807f5265736f757263657320526571756972656d656e74206e6f74206d657400000081525060200191505060405180910390fd5b6109dc87600160000154611e9e90919063ffffffff16565b6001600001819055506109fc866001800154611e9e90919063ffffffff16565b60018001819055506000851115610b6457600f60009054906101000a900473ffffffffffffffffffffffffffffffffffffffff1673ffffffffffffffffffffffffffffffffffffffff1663934c0ae933876040518363ffffffff1660e01b8152600401808373ffffffffffffffffffffffffffffffffffffffff1673ffffffffffffffffffffffffffffffffffffffff16815260200182815260200192505050602060405180830381600087803b158015610ab657600080fd5b505af1158015610aca573d6000803e3d6000fd5b505050506040513d6020811015610ae057600080fd5b8101908080519060200190929190505050610b63576040517f08c379a000000000000000000000000000000000000000000000000000000000815260040180806020018281038252600e8152602001807f4e6f2047656d2042616c616e636500000000000000000000000000000000000081525060200191505060405180910390fd5b5b610b6c611f4b565b610b84846001600201546120d090919063ffffffff16565b600160020181905550610ba5836001600301546120d090919063ffffffff16565b60016003018190555089600160080160008d815260200190815260200160002060000181905550610bdf42826120d090919063ffffffff16565b600160080160008d8152602001908152602001600020600101819055506000821115610d5c57600f60009054906101000a900473ffffffffffffffffffffffffffffffffffffffff1673ffffffffffffffffffffffffffffffffffffffff1663ec9926a033846040518363ffffffff1660e01b8152600401808373ffffffffffffffffffffffffffffffffffffffff1673ffffffffffffffffffffffffffffffffffffffff16815260200182815260200192505050602060405180830381600087803b158015610cae57600080fd5b505af1158015610cc2573d6000803e3d6000fd5b505050506040513d6020811015610cd857600080fd5b8101908080519060200190929190505050610d5b576040517f08c379a00000000000000000000000000000000000000000000000000000000081526004018080602001828103825260148152602001807f536f6d657468696e672057656e742057726f6e6700000000000000000000000081525060200191505060405180910390fd5b5b5050505050505050505050565b600b6020528060005260406000206000915090508060000154908060010154908060020154908060030154908060040154908060050154905086565b3373ffffffffffffffffffffffffffffffffffffffff16600f60009054906101000a900473ffffffffffffffffffffffffffffffffffffffff1673ffffffffffffffffffffffffffffffffffffffff1663cf192ea2306040518263ffffffff1660e01b8152600401808273ffffffffffffffffffffffffffffffffffffffff1673ffffffffffffffffffffffffffffffffffffffff16815260200191505060206040518083038186803b158015610e5b57600080fd5b505afa158015610e6f573d6000803e3d6000fd5b505050506040513d6020811015610e8557600080fd5b810190808051906020019092919050505073ffffffffffffffffffffffffffffffffffffffff1614610f1f576040517f08c379a00000000000000000000000000000000000000000000000000000000081526004018080602001828103825260198152602001807f55736572206973206e6f742056696c6c616765206f776e65720000000000000081525060200191505060405180910390fd5b6000806000806000806000600f60009054906101000a900473ffffffffffffffffffffffffffffffffffffffff1673ffffffffffffffffffffffffffffffffffffffff16630876a5c38a6040518263ffffffff1660e01b81526004018082815260200191505060e06040518083038186803b158015610f9d57600080fd5b505afa158015610fb1573d6000803e3d6000fd5b505050506040513d60e0811015610fc757600080fd5b8101908080519060200190929190805190602001909291908051906020019092919080519060200190929190805190602001909291908051906020019092919080519060200190929190505050965096509650965096509650965060008111611098576040517f08c379a00000000000000000000000000000000000000000000000000000000081526004018080602001828103825260128152602001807f6e6f2074726f6f7020617661696c61626c65000000000000000000000000000081525060200191505060405180910390fd5b6110a0611eb8565b6110b388856120ef90919063ffffffff16565b600160000154101580156110dd57506110d588846120ef90919063ffffffff16565b600180015410155b61114f576040517f08c379a000000000000000000000000000000000000000000000000000000000815260040180806020018281038252601d8152602001807f5265736f757263657320526571756972656d656e74206e6f74206d657400000081525060200191505060405180910390fd5b61117961116589866120ef90919063ffffffff16565b600160000154611e9e90919063ffffffff16565b6001600001819055506111ab61119889856120ef90919063ffffffff16565b6001800154611e9e90919063ffffffff16565b6001800181905550600082111561131357600f60009054906101000a900473ffffffffffffffffffffffffffffffffffffffff1673ffffffffffffffffffffffffffffffffffffffff1663934c0ae933846040518363ffffffff1660e01b8152600401808373ffffffffffffffffffffffffffffffffffffffff1673ffffffffffffffffffffffffffffffffffffffff16815260200182815260200192505050602060405180830381600087803b15801561126557600080fd5b505af1158015611279573d6000803e3d6000fd5b505050506040513d602081101561128f57600080fd5b8101908080519060200190929190505050611312576040517f08c379a000000000000000000000000000000000000000000000000000000000815260040180806020018281038252600e8152602001807f4e6f2047656d2042616c616e636500000000000000000000000000000000000081525060200191505060405180910390fd5b5b61131b611f4b565b42600e54101561132d5742600e819055505b611335612129565b898160000181815250508881602001818152505061137061135f838b6120ef90919063ffffffff16565b600e546120d090919063ffffffff16565b81604001818152505061138c89886120ef90919063ffffffff16565b8160600181815250506113a889896120ef90919063ffffffff16565b8160800181815250506113c489876120ef90919063ffffffff16565b8160a001818152505080600b6000600d548152602001908152602001600020600082015181600001556020820151816001015560408201518160020155606082015181600301556080820151816004015560a082015181600501559050508060400151600e81905550600d6000815480929190600101919050555050505050505050505050565b61145361154c565b6114c5576040517f08c379a00000000000000000000000000000000000000000000000000000000081526004018080602001828103825260208152602001807f4f776e61626c653a2063616c6c6572206973206e6f7420746865206f776e657281525060200191505060405180910390fd5b600f60009054906101000a900473ffffffffffffffffffffffffffffffffffffffff1673ffffffffffffffffffffffffffffffffffffffff16ff5b600060016009016000838152602001908152602001600020600001549050919050565b60008060009054906101000a900473ffffffffffffffffffffffffffffffffffffffff16905090565b60008060009054906101000a900473ffffffffffffffffffffffffffffffffffffffff1673ffffffffffffffffffffffffffffffffffffffff163373ffffffffffffffffffffffffffffffffffffffff1614905090565b600d5481565b600080600073ffffffffffffffffffffffffffffffffffffffff16600f60009054906101000a900473ffffffffffffffffffffffffffffffffffffffff1673ffffffffffffffffffffffffffffffffffffffff1663cf192ea2336040518263ffffffff1660e01b8152600401808273ffffffffffffffffffffffffffffffffffffffff1673ffffffffffffffffffffffffffffffffffffffff16815260200191505060206040518083038186803b15801561166357600080fd5b505afa158015611677573d6000803e3d6000fd5b505050506040513d602081101561168d57600080fd5b810190808051906020019092919050505073ffffffffffffffffffffffffffffffffffffffff161415611728576040517f08c379a00000000000000000000000000000000000000000000000000000000081526004018080602001828103825260158152602001807f43616c6c6572206973206e6f742056696c6c616765000000000000000000000081525060200191505060405180910390fd5b611730611eb8565b611738611f4b565b600060016005015485106117de576001905083600160000154101561176f5760006001600001819055506001600001549250611794565b61178784600160000154611e9e90919063ffffffff16565b6001600001819055508392505b83600180015410156117b65760006001800181905550600180015491506117d9565b6117cd846001800154611e9e90919063ffffffff16565b60018001819055508391505b6117eb565b6000905060009250600091505b7f3ad5e3597d153d8e5e5ed376cdb7e5c4a7fb5a1a2039af3d039d5f2b7fc185588630858585604051808673ffffffffffffffffffffffffffffffffffffffff1673ffffffffffffffffffffffffffffffffffffffff1681526020018573ffffffffffffffffffffffffffffffffffffffff1673ffffffffffffffffffffffffffffffffffffffff168152602001848152602001838152602001821515151581526020019550505050505060405180910390a150935093915050565b3373ffffffffffffffffffffffffffffffffffffffff16600f60009054906101000a900473ffffffffffffffffffffffffffffffffffffffff1673ffffffffffffffffffffffffffffffffffffffff1663cf192ea2306040518263ffffffff1660e01b8152600401808273ffffffffffffffffffffffffffffffffffffffff1673ffffffffffffffffffffffffffffffffffffffff16815260200191505060206040518083038186803b15801561195d57600080fd5b505afa158015611971573d6000803e3d6000fd5b505050506040513d602081101561198757600080fd5b810190808051906020019092919050505073ffffffffffffffffffffffffffffffffffffffff1614611a21576040517f08c379a00000000000000000000000000000000000000000000000000000000081526004018080602001828103825260198152602001807f55736572206973206e6f742056696c6c616765206f776e65720000000000000081525060200191505060405180910390fd5b600073ffffffffffffffffffffffffffffffffffffffff16600f60009054906101000a900473ffffffffffffffffffffffffffffffffffffffff1673ffffffffffffffffffffffffffffffffffffffff1663cf192ea2836040518263ffffffff1660e01b8152600401808273ffffffffffffffffffffffffffffffffffffffff1673ffffffffffffffffffffffffffffffffffffffff16815260200191505060206040518083038186803b158015611ad857600080fd5b505afa158015611aec573d6000803e3d6000fd5b505050506040513d6020811015611b0257600080fd5b810190808051906020019092919050505073ffffffffffffffffffffffffffffffffffffffff161415611b9d576040517f08c379a000000000000000000000000000000000000000000000000000000000815260040180806020018281038252600f8152602001807f496e76616c69642076696c6c616765000000000000000000000000000000000081525060200191505060405180910390fd5b3373ffffffffffffffffffffffffffffffffffffffff16600f60009054906101000a900473ffffffffffffffffffffffffffffffffffffffff1673ffffffffffffffffffffffffffffffffffffffff1663cf192ea2836040518263ffffffff1660e01b8152600401808273ffffffffffffffffffffffffffffffffffffffff1673ffffffffffffffffffffffffffffffffffffffff16815260200191505060206040518083038186803b158015611c5357600080fd5b505afa158015611c67573d6000803e3d6000fd5b505050506040513d6020811015611c7d57600080fd5b810190808051906020019092919050505073ffffffffffffffffffffffffffffffffffffffff161415611d18576040517f08c379a000000000000000000000000000000000000000000000000000000000815260040180806020018281038252601d8152602001807f557365722043616e27742061747461636b206f776e2076696c6c61676500000081525060200191505060405180910390fd5b611d20611eb8565b611d28611f4b565b6000808273ffffffffffffffffffffffffffffffffffffffff1663a9422ae8306001600401546001600601546040518463ffffffff1660e01b8152600401808473ffffffffffffffffffffffffffffffffffffffff1673ffffffffffffffffffffffffffffffffffffffff16815260200183815260200182815260200193505050506040805180830381600087803b158015611dc357600080fd5b505af1158015611dd7573d6000803e3d6000fd5b505050506040513d6040811015611ded57600080fd5b81019080805190602001909291908051906020019092919050505091509150611e24826001600001546120d090919063ffffffff16565b600160000181905550611e45816001600001546120d090919063ffffffff16565b6001800181905550505050565b6000806001600801600084815260200190815260200160002060000154915060016008016000848152602001908152602001600020600101549050915091565b600c5481565b600e5481565b600082821115611ead57600080fd5b818303905092915050565b6000429050611eec611ed860016007015483611e9e90919063ffffffff16565b6001600201546120ef90919063ffffffff16565b600160000160008282540192505081905550611f2d611f1960016007015483611e9e90919063ffffffff16565b6001600301546120ef90919063ffffffff16565b60018001600082825401925050819055508060016007018190555050565b6000600c5490505b600d5481108015611f79575042600b600083815260200190815260200160002060020154105b156120cd57611fac600b6000838152602001908152602001600020600301546001600401546120d090919063ffffffff16565b600160040181905550611fe3600b6000838152602001908152602001600020600401546001600501546120d090919063ffffffff16565b60016005018190555061201a600b6000838152602001908152602001600020600501546001600601546120d090919063ffffffff16565b60016006018190555061207b600b60008381526020019081526020016000206001015460016009016000600b6000868152602001908152602001600020600001548152602001908152602001600020600001546120d090919063ffffffff16565b60016009016000600b600085815260200190815260200160002060000154815260200190815260200160002060000181905550600c600081548092919060010191905055508080600101915050611f53565b50565b6000808284019050838110156120e557600080fd5b8091505092915050565b6000808314156121025760009050612123565b600082840290508284828161211357fe5b041461211e57600080fd5b809150505b92915050565b6040518060c00160405280600081526020016000815260200160008152602001600081526020016000815260200160008152509056fea165627a7a723058206de094a469a84dc218a1be84dab223c792b5bd3235069c1b93abd951e6a0a4de0029a165627a7a723058202bad2ea118ef047e0fa1c056d38cdb296646bcbb7f0de75c4f91735469a6729f0029",
  "source": "pragma solidity ^0.5.0;\r\nimport \"./Village.sol\";\r\nimport \"./ERC20.sol\";\r\nimport \"./Ownable.sol\";\r\n\r\n/**\r\n * @title CClink\r\n * contract to connect b/w Cityclash and Village\r\n */\r\ncontract CClink is Ownable{\r\n    address public CityClash;\r\n    // check caller is CityClash Contract\r\n    modifier isGame() {\r\n        require(CityClash == msg.sender,\"User is not Game\");\r\n        _;\r\n    }\r\n    /**\r\n    * function to create Village.\r\n    * Only CityClash Contract  can execute this function.\r\n    * @dev Note: this function called from CityClash contract\r\n    */\r\n    function createVillage() public isGame returns(address){\r\n        return(address(new Village(msg.sender)));\r\n    }\r\n    /**\r\n    * function to destroy Village.\r\n    * Only CityClash Contract  can execute this function.\r\n    * @dev Note: this function called from CityClash contract\r\n    */\r\n    function destroyVillage(address _village) public isGame returns(bool){\r\n        Village(_village).DestroyVillage();\r\n        return true;\r\n    }\r\n     /**\r\n    * function to create ERC20 Token\r\n    * Only CityClash Contract  can execute this function.\r\n    * @param initialSupply total supply of token\r\n    * @param tokenName Erc20 token Name\r\n    * @param decimalUnits Amount of decimals for display purposes\r\n    * @param tokenSymbol  Set the symbol for display purposes\r\n    * @param _Owner  Owner of the ERC20 token\r\n    * @return address of the ERC20 token\r\n    */\r\n    function createToken(uint256 initialSupply, string memory tokenName, uint8 decimalUnits,\r\n    string memory  tokenSymbol,address payable _Owner) public isGame returns(address){\r\n        return(address(new CityGem(initialSupply,tokenName,decimalUnits,tokenSymbol,_Owner)));\r\n    }\r\n    /**\r\n    * function to change CityClash Contract Address.\r\n    * Only Owner  can execute this function.\r\n    * @param Game CityClash Contract Address\r\n    */\r\n    function changeCCAddress(address Game) public onlyOwner {\r\n        CityClash = Game;\r\n    }\r\n}",
  "sourcePath": "E:/KBA/ethereum/project/Docker/Truffle/contracts/CClink.sol",
  "compiler": {
    "name": "solc",
    "version": "0.5.8+commit.23d335f2.Emscripten.clang"
  },
  "schemaVersion": "3.0.11",
  "updatedAt": "2019-09-12T13:26:17.307Z",
  "devdoc": {
    "methods": {
      "changeCCAddress(address)": {
        "params": {
          "Game": "CityClash Contract Address\r"
        }
      },
      "createToken(uint256,string,uint8,string,address)": {
        "params": {
          "_Owner": "Owner of the ERC20 token\r",
          "decimalUnits": "Amount of decimals for display purposes\r",
          "initialSupply": "total supply of token\r",
          "tokenName": "Erc20 token Name\r",
          "tokenSymbol": "Set the symbol for display purposes\r"
        },
        "return": "address of the ERC20 token\r"
      },
      "createVillage()": {
        "details": "Note: this function called from CityClash contract\r"
      },
      "destroyVillage(address)": {
        "details": "Note: this function called from CityClash contract\r"
      },
      "isOwner()": {
        "details": "Returns true if the caller is the current owner.\r"
      },
      "owner()": {
        "details": "Returns the address of the current owner.\r"
      }
    },
    "title": "CClink\r contract to connect b/w Cityclash and Village\r"
  },
  "userdoc": {
    "methods": {
      "changeCCAddress(address)": {
        "notice": "function to change CityClash Contract Address.\r Only Owner  can execute this function.\r"
      },
      "createToken(uint256,string,uint8,string,address)": {
        "notice": "function to create ERC20 Token\r Only CityClash Contract  can execute this function.\r"
      },
      "createVillage()": {
        "notice": "function to create Village.\r Only CityClash Contract  can execute this function.\r"
      },
      "destroyVillage(address)": {
        "notice": "function to destroy Village.\r Only CityClash Contract  can execute this function.\r"
      }
    }
  }
}