{
  "contractName": "CCvariables",
  "abi": [
    {
      "constant": true,
      "inputs": [
        {
          "name": "_player",
          "type": "address"
        }
      ],
      "name": "GetPlayerDetails",
      "outputs": [
        {
          "name": "_Towns",
          "type": "address[]"
        },
        {
          "name": "_GemsCount",
          "type": "uint256"
        }
      ],
      "payable": false,
      "stateMutability": "view",
      "type": "function"
    },
    {
      "constant": true,
      "inputs": [
        {
          "name": "_player",
          "type": "address"
        }
      ],
      "name": "GetPlayerGems",
      "outputs": [
        {
          "name": "_GemsCount",
          "type": "uint256"
        }
      ],
      "payable": false,
      "stateMutability": "view",
      "type": "function"
    },
    {
      "constant": true,
      "inputs": [],
      "name": "GetVillages",
      "outputs": [
        {
          "name": "",
          "type": "address[]"
        }
      ],
      "payable": false,
      "stateMutability": "view",
      "type": "function"
    },
    {
      "constant": true,
      "inputs": [
        {
          "name": "_village",
          "type": "address"
        }
      ],
      "name": "GetVillageOwner",
      "outputs": [
        {
          "name": "",
          "type": "address"
        }
      ],
      "payable": false,
      "stateMutability": "view",
      "type": "function"
    },
    {
      "constant": true,
      "inputs": [],
      "name": "GetAvailableSellOrders",
      "outputs": [
        {
          "name": "",
          "type": "address[]"
        },
        {
          "name": "",
          "type": "address[]"
        },
        {
          "name": "",
          "type": "uint256[]"
        },
        {
          "name": "",
          "type": "uint256[]"
        },
        {
          "name": "",
          "type": "uint256[]"
        }
      ],
      "payable": false,
      "stateMutability": "view",
      "type": "function"
    },
    {
      "constant": true,
      "inputs": [],
      "name": "GetFilledSellOrders",
      "outputs": [
        {
          "name": "",
          "type": "address[]"
        },
        {
          "name": "",
          "type": "address[]"
        },
        {
          "name": "",
          "type": "address[]"
        },
        {
          "name": "",
          "type": "uint256[]"
        },
        {
          "name": "",
          "type": "uint256[]"
        }
      ],
      "payable": false,
      "stateMutability": "view",
      "type": "function"
    },
    {
      "constant": true,
      "inputs": [
        {
          "name": "_ID",
          "type": "uint256"
        },
        {
          "name": "_level",
          "type": "uint256"
        }
      ],
      "name": "GetBuildingUpgrades",
      "outputs": [
        {
          "name": "_RequiredBuilding",
          "type": "uint256"
        },
        {
          "name": "_RequiredLevel",
          "type": "uint256"
        },
        {
          "name": "_RequiredGold",
          "type": "uint256"
        },
        {
          "name": "_RequiredElixr",
          "type": "uint256"
        },
        {
          "name": "_RequiredGem",
          "type": "uint256"
        },
        {
          "name": "_GoldRate",
          "type": "uint256"
        },
        {
          "name": "_ElixrRate",
          "type": "uint256"
        },
        {
          "name": "_GemReward",
          "type": "uint256"
        },
        {
          "name": "_Time",
          "type": "uint256"
        }
      ],
      "payable": false,
      "stateMutability": "view",
      "type": "function"
    },
    {
      "constant": true,
      "inputs": [
        {
          "name": "_ID",
          "type": "uint256"
        }
      ],
      "name": "GetToopsDetails",
      "outputs": [
        {
          "name": "_Defence",
          "type": "uint256"
        },
        {
          "name": "_Attack",
          "type": "uint256"
        },
        {
          "name": "_Steal",
          "type": "uint256"
        },
        {
          "name": "_RequiredGold",
          "type": "uint256"
        },
        {
          "name": "_RequiredElixr",
          "type": "uint256"
        },
        {
          "name": "_RequiredGem",
          "type": "uint256"
        },
        {
          "name": "_Time",
          "type": "uint256"
        }
      ],
      "payable": false,
      "stateMutability": "view",
      "type": "function"
    },
    {
      "constant": true,
      "inputs": [],
      "name": "GetBuildings",
      "outputs": [
        {
          "name": "",
          "type": "uint256[]"
        },
        {
          "name": "",
          "type": "bytes32[]"
        },
        {
          "name": "",
          "type": "bytes32[]"
        }
      ],
      "payable": false,
      "stateMutability": "view",
      "type": "function"
    },
    {
      "constant": true,
      "inputs": [],
      "name": "GetTroops",
      "outputs": [
        {
          "name": "",
          "type": "uint256[]"
        },
        {
          "name": "",
          "type": "bytes32[]"
        },
        {
          "name": "",
          "type": "bytes32[]"
        }
      ],
      "payable": false,
      "stateMutability": "view",
      "type": "function"
    }
  ],
  "bytecode": "0x608060405234801561001057600080fd5b50611bf5806100206000396000f3fe608060405234801561001057600080fd5b506004361061009e5760003560e01c8063b3c49c7711610066578063b3c49c77146104f0578063c01ed26b14610590578063cf192ea2146105ef578063d00bd52914610673578063f6cfaabe146107f25761009e565b80630876a5c3146100a3578063411356781461010f5780636eb285c1146101fe5780638410b8c61461037d578063a450091d14610401575b600080fd5b6100cf600480360360208110156100b957600080fd5b810190808035906020019092919050505061084a565b6040518088815260200187815260200186815260200185815260200184815260200183815260200182815260200197505050505050505060405180910390f35b610117610970565b60405180806020018060200180602001848103845287818151815260200191508051906020019060200280838360005b83811015610162578082015181840152602081019050610147565b50505050905001848103835286818151815260200191508051906020019060200280838360005b838110156101a4578082015181840152602081019050610189565b50505050905001848103825285818151815260200191508051906020019060200280838360005b838110156101e65780820151818401526020810190506101cb565b50505050905001965050505050505060405180910390f35b610206610b78565b60405180806020018060200180602001806020018060200186810386528b818151815260200191508051906020019060200280838360005b8381101561025957808201518184015260208101905061023e565b5050505090500186810385528a818151815260200191508051906020019060200280838360005b8381101561029b578082015181840152602081019050610280565b50505050905001868103845289818151815260200191508051906020019060200280838360005b838110156102dd5780820151818401526020810190506102c2565b50505050905001868103835288818151815260200191508051906020019060200280838360005b8381101561031f578082015181840152602081019050610304565b50505050905001868103825287818151815260200191508051906020019060200280838360005b83811015610361578082015181840152602081019050610346565b505050509050019a505050505050505050505060405180910390f35b6103b36004803603604081101561039357600080fd5b810190808035906020019092919080359060200190929190505050610f03565b604051808a8152602001898152602001888152602001878152602001868152602001858152602001848152602001838152602001828152602001995050505050505050505060405180910390f35b610409611115565b60405180806020018060200180602001848103845287818151815260200191508051906020019060200280838360005b83811015610454578082015181840152602081019050610439565b50505050905001848103835286818151815260200191508051906020019060200280838360005b8381101561049657808201518184015260208101905061047b565b50505050905001848103825285818151815260200191508051906020019060200280838360005b838110156104d85780820151818401526020810190506104bd565b50505050905001965050505050505060405180910390f35b6105326004803603602081101561050657600080fd5b81019080803573ffffffffffffffffffffffffffffffffffffffff16906020019092919050505061131d565b6040518080602001838152602001828103825284818151815260200191508051906020019060200280838360005b8381101561057b578082015181840152602081019050610560565b50505050905001935050505060405180910390f35b610598611439565b6040518080602001828103825283818151815260200191508051906020019060200280838360005b838110156105db5780820151818401526020810190506105c0565b505050509050019250505060405180910390f35b6106316004803603602081101561060557600080fd5b81019080803573ffffffffffffffffffffffffffffffffffffffff169060200190929190505050611735565b604051808273ffffffffffffffffffffffffffffffffffffffff1673ffffffffffffffffffffffffffffffffffffffff16815260200191505060405180910390f35b61067b6117a0565b60405180806020018060200180602001806020018060200186810386528b818151815260200191508051906020019060200280838360005b838110156106ce5780820151818401526020810190506106b3565b5050505090500186810385528a818151815260200191508051906020019060200280838360005b838110156107105780820151818401526020810190506106f5565b50505050905001868103845289818151815260200191508051906020019060200280838360005b83811015610752578082015181840152602081019050610737565b50505050905001868103835288818151815260200191508051906020019060200280838360005b83811015610794578082015181840152602081019050610779565b50505050905001868103825287818151815260200191508051906020019060200280838360005b838110156107d65780820151818401526020810190506107bb565b505050509050019a505050505050505050505060405180910390f35b6108346004803603602081101561080857600080fd5b81019080803573ffffffffffffffffffffffffffffffffffffffff169060200190929190505050611b7b565b6040518082815260200191505060405180910390f35b600080600080600080600080600501888154811061086457fe5b90600052602060002090600a02016003016000015496506000600501888154811061088b57fe5b90600052602060002090600a0201600301600101549550600060050188815481106108b257fe5b90600052602060002090600a0201600301600201549450600060050188815481106108d957fe5b90600052602060002090600a02016003016003015493506000600501888154811061090057fe5b90600052602060002090600a02016003016004015492506000600501888154811061092757fe5b90600052602060002090600a02016003016005015491506000600501888154811061094e57fe5b90600052602060002090600a0201600301600601549050919395979092949650565b6060806060600080600090505b6000600401805490508110156109d7576000600401818154811061099d57fe5b906000526020600020906004020160020160009054906101000a900460ff16156109ca5781806001019250505b808060010191505061097d565b50606081604051908082528060200260200182016040528015610a095781602001602082028038833980820191505090505b509050606082604051908082528060200260200182016040528015610a3d5781602001602082028038833980820191505090505b509050606083604051908082528060200260200182016040528015610a715781602001602082028038833980820191505090505b5090506000935060008090505b600060040180549050811015610b655760006004018181548110610a9e57fe5b906000526020600020906004020160020160009054906101000a900460ff1615610b585780828681518110610acf57fe5b60200260200101818152505060006004018181548110610aeb57fe5b906000526020600020906004020160000154848681518110610b0957fe5b60200260200101818152505060006004018181548110610b2557fe5b906000526020600020906004020160010154838681518110610b4357fe5b60200260200101818152505084806001019550505b8080600101915050610a7e565b5080838396509650965050505050909192565b6060806060806060600080600090505b600060030180549050811015610be15760006003018181548110610ba857fe5b906000526020600020906006020160050160009054906101000a900460ff16610bd45781806001019250505b8080600101915050610b88565b50606081604051908082528060200260200182016040528015610c135781602001602082028038833980820191505090505b509050606082604051908082528060200260200182016040528015610c475781602001602082028038833980820191505090505b509050606083604051908082528060200260200182016040528015610c7b5781602001602082028038833980820191505090505b509050606084604051908082528060200260200182016040528015610caf5781602001602082028038833980820191505090505b509050606085604051908082528060200260200182016040528015610ce35781602001602082028038833980820191505090505b5090506000955060008090505b600060030180549050811015610ee65760006003018181548110610d1057fe5b906000526020600020906006020160050160009054906101000a900460ff16610ed95760006003018181548110610d4357fe5b906000526020600020906006020160000160009054906101000a900473ffffffffffffffffffffffffffffffffffffffff16868881518110610d8157fe5b602002602001019073ffffffffffffffffffffffffffffffffffffffff16908173ffffffffffffffffffffffffffffffffffffffff168152505060006003018181548110610dcb57fe5b906000526020600020906006020160010160009054906101000a900473ffffffffffffffffffffffffffffffffffffffff16858881518110610e0957fe5b602002602001019073ffffffffffffffffffffffffffffffffffffffff16908173ffffffffffffffffffffffffffffffffffffffff168152505060006003018181548110610e5357fe5b906000526020600020906006020160020154848881518110610e7157fe5b60200260200101818152505060006003018181548110610e8d57fe5b906000526020600020906006020160040154838881518110610eab57fe5b60200260200101818152505080828881518110610ec457fe5b60200260200101818152505086806001019750505b8080600101915050610cf0565b5084848484849a509a509a509a509a505050505050509091929394565b6000806000806000806000806000806004018b81548110610f2057fe5b906000526020600020906004020160030160008b815260200190815260200160002060000154985060006004018b81548110610f5857fe5b906000526020600020906004020160030160008b815260200190815260200160002060010154975060006004018b81548110610f9057fe5b906000526020600020906004020160030160008b815260200190815260200160002060020154965060006004018b81548110610fc857fe5b906000526020600020906004020160030160008b815260200190815260200160002060030154955060006004018b8154811061100057fe5b906000526020600020906004020160030160008b815260200190815260200160002060040154945060006004018b8154811061103857fe5b906000526020600020906004020160030160008b815260200190815260200160002060050154935060006004018b8154811061107057fe5b906000526020600020906004020160030160008b815260200190815260200160002060060154925060006004018b815481106110a857fe5b906000526020600020906004020160030160008b815260200190815260200160002060070154915060006004018b815481106110e057fe5b906000526020600020906004020160030160008b81526020019081526020016000206008015490509295985092959850929598565b6060806060600080600090505b60006005018054905081101561117c576000600501818154811061114257fe5b90600052602060002090600a020160020160009054906101000a900460ff161561116f5781806001019250505b8080600101915050611122565b506060816040519080825280602002602001820160405280156111ae5781602001602082028038833980820191505090505b5090506060826040519080825280602002602001820160405280156111e25781602001602082028038833980820191505090505b5090506060836040519080825280602002602001820160405280156112165781602001602082028038833980820191505090505b5090506000935060008090505b60006005018054905081101561130a576000600501818154811061124357fe5b90600052602060002090600a020160020160009054906101000a900460ff16156112fd578082868151811061127457fe5b6020026020010181815250506000600501818154811061129057fe5b90600052602060002090600a0201600001548486815181106112ae57fe5b602002602001018181525050600060050181815481106112ca57fe5b90600052602060002090600a0201600101548386815181106112e857fe5b60200260200101818152505084806001019550505b8080600101915050611223565b5080838396509650965050505050909192565b606060008060020160008473ffffffffffffffffffffffffffffffffffffffff1673ffffffffffffffffffffffffffffffffffffffff1681526020019081526020016000206000018054806020026020016040519081016040528092919081815260200182805480156113e557602002820191906000526020600020905b8160009054906101000a900473ffffffffffffffffffffffffffffffffffffffff1673ffffffffffffffffffffffffffffffffffffffff168152602001906001019080831161139b575b50505050509150600060020160008473ffffffffffffffffffffffffffffffffffffffff1673ffffffffffffffffffffffffffffffffffffffff168152602001908152602001600020600101549050915091565b6060600080600090505b600080018054905081101561155857600073ffffffffffffffffffffffffffffffffffffffff166114ac60008001838154811061147c57fe5b9060005260206000200160009054906101000a900473ffffffffffffffffffffffffffffffffffffffff16611735565b73ffffffffffffffffffffffffffffffffffffffff161415801561153d57503373ffffffffffffffffffffffffffffffffffffffff166115246000800183815481106114f457fe5b9060005260206000200160009054906101000a900473ffffffffffffffffffffffffffffffffffffffff16611735565b73ffffffffffffffffffffffffffffffffffffffff1614155b1561154b5781806001019250505b8080600101915050611443565b5060608160405190808252806020026020018201604052801561158a5781602001602082028038833980820191505090505b5090506000915060008090505b600080018054905081101561172c57600073ffffffffffffffffffffffffffffffffffffffff166116006000800183815481106115d057fe5b9060005260206000200160009054906101000a900473ffffffffffffffffffffffffffffffffffffffff16611735565b73ffffffffffffffffffffffffffffffffffffffff161415801561169157503373ffffffffffffffffffffffffffffffffffffffff1661167860008001838154811061164857fe5b9060005260206000200160009054906101000a900473ffffffffffffffffffffffffffffffffffffffff16611735565b73ffffffffffffffffffffffffffffffffffffffff1614155b1561171f576000800181815481106116a557fe5b9060005260206000200160009054906101000a900473ffffffffffffffffffffffffffffffffffffffff168284815181106116dc57fe5b602002602001019073ffffffffffffffffffffffffffffffffffffffff16908173ffffffffffffffffffffffffffffffffffffffff168152505082806001019350505b8080600101915050611597565b50809250505090565b60008060010160008373ffffffffffffffffffffffffffffffffffffffff1673ffffffffffffffffffffffffffffffffffffffff16815260200190815260200160002060009054906101000a900473ffffffffffffffffffffffffffffffffffffffff169050919050565b6060806060806060600080600090505b60006003018054905081101561180a57600060030181815481106117d057fe5b906000526020600020906006020160050160009054906101000a900460ff16156117fd5781806001019250505b80806001019150506117b0565b5060608160405190808252806020026020018201604052801561183c5781602001602082028038833980820191505090505b5090506060826040519080825280602002602001820160405280156118705781602001602082028038833980820191505090505b5090506060836040519080825280602002602001820160405280156118a45781602001602082028038833980820191505090505b5090506060846040519080825280602002602001820160405280156118d85781602001602082028038833980820191505090505b50905060608560405190808252806020026020018201604052801561190c5781602001602082028038833980820191505090505b5090506000955060008090505b600060030180549050811015611b5e576000600301818154811061193957fe5b906000526020600020906006020160050160009054906101000a900460ff1615611b51576000600301818154811061196d57fe5b906000526020600020906006020160000160009054906101000a900473ffffffffffffffffffffffffffffffffffffffff168688815181106119ab57fe5b602002602001019073ffffffffffffffffffffffffffffffffffffffff16908173ffffffffffffffffffffffffffffffffffffffff1681525050600060030181815481106119f557fe5b906000526020600020906006020160010160009054906101000a900473ffffffffffffffffffffffffffffffffffffffff16858881518110611a3357fe5b602002602001019073ffffffffffffffffffffffffffffffffffffffff16908173ffffffffffffffffffffffffffffffffffffffff168152505060006003018181548110611a7d57fe5b906000526020600020906006020160030160009054906101000a900473ffffffffffffffffffffffffffffffffffffffff16848881518110611abb57fe5b602002602001019073ffffffffffffffffffffffffffffffffffffffff16908173ffffffffffffffffffffffffffffffffffffffff168152505060006003018181548110611b0557fe5b906000526020600020906006020160040154838881518110611b2357fe5b60200260200101818152505080828881518110611b3c57fe5b60200260200101818152505086806001019750505b8080600101915050611919565b5084848484849a509a509a509a509a505050505050509091929394565b60008060020160008373ffffffffffffffffffffffffffffffffffffffff1673ffffffffffffffffffffffffffffffffffffffff16815260200190815260200160002060010154905091905056fea165627a7a7230582014686147863e77afc57d34714fab1f8f510402bdcb84761f8c7d29b0c60f9c2d0029",
  "source": "pragma solidity ^0.5.0;\r\nimport \"./CC-library.sol\";\r\ncontract CCvariables{\r\n    using CClibrary for CClibrary.CCModel;\r\n    CClibrary.CCModel Game;\r\n    using SafeMath for uint256;\r\n\r\n    /**\r\n    * function to Get Player Details .\r\n    * @param _player  Player Address\r\n    * @return _Towns Player TownList\r\n    * @return _GemsCount Player  Gem balance\r\n    */\r\n    function GetPlayerDetails(address _player) public view  returns(address[] memory _Towns , uint256 _GemsCount){\r\n        _Towns = Game.Players[_player].Towns;\r\n        _GemsCount = Game.Players[_player].GemsCount;\r\n    }\r\n    /**\r\n    * function to Get Player Gem count\r\n    * @param _player  Player Address\r\n    * @return _GemsCount Player  Gem balance\r\n    */\r\n    function GetPlayerGems(address _player) public view  returns(uint256 _GemsCount){\r\n        _GemsCount = Game.Players[_player].GemsCount;\r\n    }\r\n    /**\r\n    * function to Get All Villages Excluding Caller Village.\r\n    * @return  Villages\r\n    */\r\n    function GetVillages() public view returns(address[] memory){\r\n        uint256 j;\r\n        for (uint256 i = 0; i < Game.Villages.length; i++) {\r\n            if(GetVillageOwner(Game.Villages[i]) != address(0) && GetVillageOwner(Game.Villages[i]) != msg.sender){\r\n                j++;\r\n            }\r\n        }\r\n        address[] memory _villages = new address[](j);\r\n        j = 0;\r\n        for (uint256 i = 0; i < Game.Villages.length; i++) {\r\n            if(GetVillageOwner(Game.Villages[i]) != address(0) && GetVillageOwner(Game.Villages[i]) != msg.sender){\r\n                 _villages[j] = Game.Villages[i];\r\n                 j++;\r\n            }\r\n        }\r\n        return _villages;\r\n    }\r\n   /**\r\n    * function to Get Village owner .\r\n    * @param _village Village address\r\n    * @return Village owner address\r\n    */\r\n    function GetVillageOwner(address _village) public view returns(address){\r\n        return Game.VillageOwner[_village];\r\n    }\r\n    /**\r\n    * function to Get Filled Sell Orders .\r\n    * @return village address list\r\n    * @return seller address list\r\n    * @return this village position in seller town list\r\n    * @return sell price list\r\n    */\r\n    function GetAvailableSellOrders() public view returns(address[] memory,address[] memory,uint256[] memory,uint256[] memory, uint256[] memory){\r\n        uint256 j;\r\n        for (uint256 i = 0; i < Game.SellOrders.length; i++) {\r\n            if(!Game.SellOrders[i].IsFilled){\r\n                j++;\r\n            }\r\n        }\r\n        address[] memory _SellVillage = new address[](j);\r\n        address[] memory _Seller = new address[](j);\r\n        uint256[] memory _TownPosition = new uint256[](j);\r\n        uint256[] memory _SellPrice = new uint256[](j);\r\n        uint256[] memory _Position = new uint256[](j);\r\n        j = 0;\r\n        for (uint256 i = 0; i < Game.SellOrders.length; i++) {\r\n            if(!Game.SellOrders[i].IsFilled){\r\n                _SellVillage[j] = Game.SellOrders[i].SellVillage;\r\n                _Seller[j] = Game.SellOrders[i].Seller;\r\n                _TownPosition[j] = Game.SellOrders[i].TownPosition;\r\n                _SellPrice[j] = Game.SellOrders[i].SellPrice;\r\n                _Position[j] = i;\r\n                j++;\r\n            }\r\n        }\r\n        return (_SellVillage, _Seller, _TownPosition, _SellPrice, _Position);\r\n    }\r\n    /**\r\n    * function to Get Filled Sell Orders .\r\n    * @return village address list\r\n    * @return seller address list\r\n    * @return buyer address list\r\n    * @return sell price list\r\n    */\r\n    function GetFilledSellOrders() public view returns(address[] memory,address[] memory,address[] memory,uint256[] memory,uint256[] memory){\r\n        uint256 j;\r\n        for (uint256 i = 0; i < Game.SellOrders.length; i++) {\r\n            if(Game.SellOrders[i].IsFilled){\r\n                j++;\r\n            }\r\n        }\r\n        address[] memory _SellVillage = new address[](j);\r\n        address[] memory _Seller = new address[](j);\r\n        address[] memory _Buyer = new address[](j);\r\n        uint256[] memory _SellPrice = new uint256[](j);\r\n        uint256[] memory _Position = new uint256[](j);\r\n        j = 0;\r\n        for (uint256 i = 0; i < Game.SellOrders.length; i++) {\r\n            if(Game.SellOrders[i].IsFilled){\r\n                _SellVillage[j] = Game.SellOrders[i].SellVillage;\r\n                _Seller[j] = Game.SellOrders[i].Seller;\r\n                _Buyer[j] = Game.SellOrders[i].Buyer;\r\n                _SellPrice[j] = Game.SellOrders[i].SellPrice;\r\n                _Position[j] = i;\r\n                j++;\r\n            }\r\n        }\r\n        return (_SellVillage, _Seller, _Buyer, _SellPrice, _Position);\r\n    }\r\n    /**\r\n    * function to Get Building Upgarede Detail .\r\n    * @param _ID Building ID\r\n    * @param _level Building level\r\n    * @return _RequiredBuilding Required Building ID to Upgarde\r\n    * @return _RequiredLevel Required Building Level to Upgrade\r\n    * @return _RequiredGold  Required Gold to upgrade\r\n    * @return _RequiredElixr Required Elixr to upgrade\r\n    * @return _RequiredGem Required Gem to upgrade\r\n    * @return _GoldRate Change in gold production rate\r\n    * @return _ElixrRate Change in elixr production rate\r\n    * @return _GemReward amount of gem reward to user\r\n    * @return _Time Cool off time to next Upgrade\r\n    */\r\n\r\n    function GetBuildingUpgrades(uint256 _ID, uint256 _level) public view\r\n    returns(uint256 _RequiredBuilding, uint256 _RequiredLevel, uint256 _RequiredGold, uint256 _RequiredElixr,\r\n    uint256 _RequiredGem, uint256 _GoldRate, uint256 _ElixrRate, uint256 _GemReward, uint256 _Time){\r\n        _RequiredBuilding = Game.Buildings[_ID].Upgrade[_level].RequiredBuilding;\r\n        _RequiredLevel = Game.Buildings[_ID].Upgrade[_level].RequiredLevel;\r\n        _RequiredGold = Game.Buildings[_ID].Upgrade[_level].RequiredGold;\r\n        _RequiredElixr = Game.Buildings[_ID].Upgrade[_level].RequiredElixr;\r\n        _RequiredGem = Game.Buildings[_ID].Upgrade[_level].RequiredGem;\r\n        _GoldRate = Game.Buildings[_ID].Upgrade[_level].GoldRate;\r\n        _ElixrRate = Game.Buildings[_ID].Upgrade[_level].ElixrRate;\r\n        _GemReward = Game.Buildings[_ID].Upgrade[_level].GemReward;\r\n        _Time = Game.Buildings[_ID].Upgrade[_level].Time;\r\n    }\r\n    /**\r\n    * function to Get Troops training Detail .\r\n    * @param _ID troop ID\r\n    * @return _Defence Change in Defence power\r\n    * @return _Attack Change in Attack Power\r\n    * @return _Steal Change in Steal power\r\n    * @return _RequiredGold  Required Gold to upgrade\r\n    * @return _RequiredElixr Required Elixr to upgrade\r\n    * @return _RequiredGem Required Gem to upgrade\r\n    * @return _Time Time Required to upgrade troop\r\n    */\r\n    function GetToopsDetails(uint256 _ID) public view\r\n    returns(uint256 _Defence, uint256 _Attack, uint256 _Steal, uint256 _RequiredGold,\r\n    uint256 _RequiredElixr, uint256 _RequiredGem, uint256 _Time){\r\n        _Defence = Game.Troops[_ID].Train.Defence;\r\n        _Attack = Game.Troops[_ID].Train.Attack;\r\n        _Steal = Game.Troops[_ID].Train.Steal;\r\n        _RequiredGold = Game.Troops[_ID].Train.RequiredGold;\r\n        _RequiredElixr = Game.Troops[_ID].Train.RequiredElixr;\r\n        _RequiredGem = Game.Troops[_ID].Train.RequiredGem;\r\n        _Time = Game.Troops[_ID].Train.Time;\r\n    }\r\n    /**\r\n    * function to Get All Builings\r\n    * @return _id array of Builing IDs \r\n    * @return _name array of name of builings\r\n    * @return _image array of swarm hash of builings\r\n    */\r\n    function GetBuildings() public view returns(uint256[] memory ,bytes32[] memory,bytes32[] memory){\r\n        uint256 j;\r\n        for (uint256 i = 0; i < Game.Buildings.length; i++) {\r\n            if(Game.Buildings[i].state){\r\n                j++;\r\n            }\r\n        }\r\n        bytes32[] memory _name = new bytes32[](j);\r\n        bytes32[] memory _image = new bytes32[](j);\r\n        uint256[] memory _id = new uint256[](j);\r\n        j = 0;\r\n        for (uint256 i = 0; i < Game.Buildings.length; i++) {\r\n            if(Game.Buildings[i].state){\r\n                _id[j] = i;\r\n                _name[j] = Game.Buildings[i].name;\r\n                _image[j] = Game.Buildings[i].image;\r\n                j++;\r\n            }\r\n        }\r\n        return (_id,_name, _image);\r\n    }\r\n    /**\r\n    * function to Get All troops\r\n    * @return _id array of troop IDs\r\n    * @return _name array of name of troop\r\n    * @return _image array of swarm hash of troop\r\n    */\r\n    function GetTroops() public view returns(uint256[] memory ,bytes32[] memory,bytes32[] memory){\r\n        uint256 j;\r\n        for (uint256 i = 0; i < Game.Troops.length; i++) {\r\n            if(Game.Troops[i].state){\r\n                j++;\r\n            }\r\n        }\r\n        bytes32[] memory _name = new bytes32[](j);\r\n        bytes32[] memory _image = new bytes32[](j);\r\n        uint256[] memory _id = new uint256[](j);\r\n        j = 0;\r\n        for (uint256 i = 0; i < Game.Troops.length; i++) {\r\n            if(Game.Troops[i].state){\r\n                _id[j] = i;\r\n                _name[j] = Game.Troops[i].name;\r\n                _image[j] = Game.Troops[i].image;\r\n                j++;\r\n            }\r\n        }\r\n        return (_id,_name, _image);\r\n    }\r\n}",
  "sourcePath": "E:\\KBA\\ethereum\\project\\Docker\\Truffle\\contracts\\CC-variables.sol",
  "compiler": {
    "name": "solc",
    "version": "0.5.8+commit.23d335f2.Emscripten.clang"
  },
  "schemaVersion": "3.0.11",
  "updatedAt": "2019-09-12T13:16:28.125Z",
  "devdoc": {
    "methods": {
      "GetAvailableSellOrders()": {
        "return": "village address list\rseller address list\rthis village position in seller town list\rsell price list\r"
      },
      "GetBuildingUpgrades(uint256,uint256)": {
        "params": {
          "_ID": "Building ID\r",
          "_level": "Building level\r"
        },
        "return": "_RequiredBuilding Required Building ID to Upgarde\r_RequiredLevel Required Building Level to Upgrade\r_RequiredGold  Required Gold to upgrade\r_RequiredElixr Required Elixr to upgrade\r_RequiredGem Required Gem to upgrade\r_GoldRate Change in gold production rate\r_ElixrRate Change in elixr production rate\r_GemReward amount of gem reward to user\r_Time Cool off time to next Upgrade\r"
      },
      "GetBuildings()": {
        "return": "_id array of Builing IDs \r_name array of name of builings\r_image array of swarm hash of builings\r"
      },
      "GetFilledSellOrders()": {
        "return": "village address list\rseller address list\rbuyer address list\rsell price list\r"
      },
      "GetPlayerDetails(address)": {
        "params": {
          "_player": "Player Address\r"
        },
        "return": "_Towns Player TownList\r_GemsCount Player  Gem balance\r"
      },
      "GetPlayerGems(address)": {
        "params": {
          "_player": "Player Address\r"
        },
        "return": "_GemsCount Player  Gem balance\r"
      },
      "GetToopsDetails(uint256)": {
        "params": {
          "_ID": "troop ID\r"
        },
        "return": "_Defence Change in Defence power\r_Attack Change in Attack Power\r_Steal Change in Steal power\r_RequiredGold  Required Gold to upgrade\r_RequiredElixr Required Elixr to upgrade\r_RequiredGem Required Gem to upgrade\r_Time Time Required to upgrade troop\r"
      },
      "GetTroops()": {
        "return": "_id array of troop IDs\r_name array of name of troop\r_image array of swarm hash of troop\r"
      },
      "GetVillageOwner(address)": {
        "params": {
          "_village": "Village address\r"
        },
        "return": "Village owner address\r"
      },
      "GetVillages()": {
        "return": "Villages\r"
      }
    }
  },
  "userdoc": {
    "methods": {
      "GetAvailableSellOrders()": {
        "notice": "function to Get Filled Sell Orders .\r"
      },
      "GetBuildingUpgrades(uint256,uint256)": {
        "notice": "function to Get Building Upgarede Detail .\r"
      },
      "GetBuildings()": {
        "notice": "function to Get All Builings\r"
      },
      "GetFilledSellOrders()": {
        "notice": "function to Get Filled Sell Orders .\r"
      },
      "GetPlayerDetails(address)": {
        "notice": "function to Get Player Details .\r"
      },
      "GetPlayerGems(address)": {
        "notice": "function to Get Player Gem count\r"
      },
      "GetToopsDetails(uint256)": {
        "notice": "function to Get Troops training Detail .\r"
      },
      "GetTroops()": {
        "notice": "function to Get All troops\r"
      },
      "GetVillageOwner(address)": {
        "notice": "function to Get Village owner .\r"
      },
      "GetVillages()": {
        "notice": "function to Get All Villages Excluding Caller Village.\r"
      }
    }
  }
}