{
  "contractName": "CityClash",
  "abi": [
    {
      "constant": true,
      "inputs": [
        {
          "name": "_ID",
          "type": "uint256"
        }
      ],
      "name": "GetToopsDetails",
      "outputs": [
        {
          "name": "_Defence",
          "type": "uint256"
        },
        {
          "name": "_Attack",
          "type": "uint256"
        },
        {
          "name": "_Steal",
          "type": "uint256"
        },
        {
          "name": "_RequiredGold",
          "type": "uint256"
        },
        {
          "name": "_RequiredElixr",
          "type": "uint256"
        },
        {
          "name": "_RequiredGem",
          "type": "uint256"
        },
        {
          "name": "_Time",
          "type": "uint256"
        }
      ],
      "payable": false,
      "stateMutability": "view",
      "type": "function"
    },
    {
      "constant": true,
      "inputs": [],
      "name": "GetBuildings",
      "outputs": [
        {
          "name": "",
          "type": "uint256[]"
        },
        {
          "name": "",
          "type": "bytes32[]"
        },
        {
          "name": "",
          "type": "bytes32[]"
        }
      ],
      "payable": false,
      "stateMutability": "view",
      "type": "function"
    },
    {
      "constant": true,
      "inputs": [],
      "name": "GetAvailableSellOrders",
      "outputs": [
        {
          "name": "",
          "type": "address[]"
        },
        {
          "name": "",
          "type": "address[]"
        },
        {
          "name": "",
          "type": "uint256[]"
        },
        {
          "name": "",
          "type": "uint256[]"
        },
        {
          "name": "",
          "type": "uint256[]"
        }
      ],
      "payable": false,
      "stateMutability": "view",
      "type": "function"
    },
    {
      "constant": true,
      "inputs": [
        {
          "name": "_ID",
          "type": "uint256"
        },
        {
          "name": "_level",
          "type": "uint256"
        }
      ],
      "name": "GetBuildingUpgrades",
      "outputs": [
        {
          "name": "_RequiredBuilding",
          "type": "uint256"
        },
        {
          "name": "_RequiredLevel",
          "type": "uint256"
        },
        {
          "name": "_RequiredGold",
          "type": "uint256"
        },
        {
          "name": "_RequiredElixr",
          "type": "uint256"
        },
        {
          "name": "_RequiredGem",
          "type": "uint256"
        },
        {
          "name": "_GoldRate",
          "type": "uint256"
        },
        {
          "name": "_ElixrRate",
          "type": "uint256"
        },
        {
          "name": "_GemReward",
          "type": "uint256"
        },
        {
          "name": "_Time",
          "type": "uint256"
        }
      ],
      "payable": false,
      "stateMutability": "view",
      "type": "function"
    },
    {
      "constant": true,
      "inputs": [],
      "name": "owner",
      "outputs": [
        {
          "name": "",
          "type": "address"
        }
      ],
      "payable": false,
      "stateMutability": "view",
      "type": "function"
    },
    {
      "constant": true,
      "inputs": [],
      "name": "isOwner",
      "outputs": [
        {
          "name": "",
          "type": "bool"
        }
      ],
      "payable": false,
      "stateMutability": "view",
      "type": "function"
    },
    {
      "constant": true,
      "inputs": [],
      "name": "SellCommission",
      "outputs": [
        {
          "name": "",
          "type": "uint256"
        }
      ],
      "payable": false,
      "stateMutability": "view",
      "type": "function"
    },
    {
      "constant": true,
      "inputs": [],
      "name": "TownBasicPrice",
      "outputs": [
        {
          "name": "",
          "type": "uint256"
        }
      ],
      "payable": false,
      "stateMutability": "view",
      "type": "function"
    },
    {
      "constant": true,
      "inputs": [],
      "name": "GetTroops",
      "outputs": [
        {
          "name": "",
          "type": "uint256[]"
        },
        {
          "name": "",
          "type": "bytes32[]"
        },
        {
          "name": "",
          "type": "bytes32[]"
        }
      ],
      "payable": false,
      "stateMutability": "view",
      "type": "function"
    },
    {
      "constant": true,
      "inputs": [],
      "name": "CityToken",
      "outputs": [
        {
          "name": "",
          "type": "address"
        }
      ],
      "payable": false,
      "stateMutability": "view",
      "type": "function"
    },
    {
      "constant": true,
      "inputs": [
        {
          "name": "_player",
          "type": "address"
        }
      ],
      "name": "GetPlayerDetails",
      "outputs": [
        {
          "name": "_Towns",
          "type": "address[]"
        },
        {
          "name": "_GemsCount",
          "type": "uint256"
        }
      ],
      "payable": false,
      "stateMutability": "view",
      "type": "function"
    },
    {
      "constant": true,
      "inputs": [],
      "name": "GetVillages",
      "outputs": [
        {
          "name": "",
          "type": "address[]"
        }
      ],
      "payable": false,
      "stateMutability": "view",
      "type": "function"
    },
    {
      "constant": true,
      "inputs": [
        {
          "name": "_village",
          "type": "address"
        }
      ],
      "name": "GetVillageOwner",
      "outputs": [
        {
          "name": "",
          "type": "address"
        }
      ],
      "payable": false,
      "stateMutability": "view",
      "type": "function"
    },
    {
      "constant": true,
      "inputs": [],
      "name": "GetFilledSellOrders",
      "outputs": [
        {
          "name": "",
          "type": "address[]"
        },
        {
          "name": "",
          "type": "address[]"
        },
        {
          "name": "",
          "type": "address[]"
        },
        {
          "name": "",
          "type": "uint256[]"
        },
        {
          "name": "",
          "type": "uint256[]"
        }
      ],
      "payable": false,
      "stateMutability": "view",
      "type": "function"
    },
    {
      "constant": true,
      "inputs": [
        {
          "name": "_player",
          "type": "address"
        }
      ],
      "name": "GetPlayerGems",
      "outputs": [
        {
          "name": "_GemsCount",
          "type": "uint256"
        }
      ],
      "payable": false,
      "stateMutability": "view",
      "type": "function"
    },
    {
      "inputs": [
        {
          "name": "_GameLink",
          "type": "address"
        }
      ],
      "payable": false,
      "stateMutability": "nonpayable",
      "type": "constructor"
    },
    {
      "constant": false,
      "inputs": [
        {
          "name": "initialSupply",
          "type": "uint256"
        },
        {
          "name": "tokenName",
          "type": "string"
        },
        {
          "name": "decimalUnits",
          "type": "uint8"
        },
        {
          "name": "tokenSymbol",
          "type": "string"
        }
      ],
      "name": "CreateToken",
      "outputs": [],
      "payable": false,
      "stateMutability": "nonpayable",
      "type": "function"
    },
    {
      "constant": false,
      "inputs": [],
      "name": "CreateVillage",
      "outputs": [],
      "payable": false,
      "stateMutability": "nonpayable",
      "type": "function"
    },
    {
      "constant": false,
      "inputs": [
        {
          "name": "_village",
          "type": "address"
        },
        {
          "name": "_position",
          "type": "uint256"
        }
      ],
      "name": "DestroyUserVillage",
      "outputs": [],
      "payable": false,
      "stateMutability": "nonpayable",
      "type": "function"
    },
    {
      "constant": false,
      "inputs": [
        {
          "name": "_village",
          "type": "address"
        },
        {
          "name": "_amount",
          "type": "uint256"
        },
        {
          "name": "_position",
          "type": "uint256"
        }
      ],
      "name": "SellUserVillage",
      "outputs": [],
      "payable": false,
      "stateMutability": "nonpayable",
      "type": "function"
    },
    {
      "constant": false,
      "inputs": [
        {
          "name": "_position",
          "type": "uint256"
        }
      ],
      "name": "CancelSellOrder",
      "outputs": [],
      "payable": false,
      "stateMutability": "nonpayable",
      "type": "function"
    },
    {
      "constant": false,
      "inputs": [
        {
          "name": "_position",
          "type": "uint256"
        }
      ],
      "name": "BuyUserVillage",
      "outputs": [],
      "payable": true,
      "stateMutability": "payable",
      "type": "function"
    },
    {
      "constant": false,
      "inputs": [
        {
          "name": "_amount",
          "type": "uint256"
        }
      ],
      "name": "depositGems",
      "outputs": [],
      "payable": false,
      "stateMutability": "nonpayable",
      "type": "function"
    },
    {
      "constant": false,
      "inputs": [
        {
          "name": "_amount",
          "type": "uint256"
        }
      ],
      "name": "withdrawGems",
      "outputs": [],
      "payable": false,
      "stateMutability": "nonpayable",
      "type": "function"
    },
    {
      "constant": false,
      "inputs": [
        {
          "name": "_value",
          "type": "uint256"
        }
      ],
      "name": "changeTownBasicPrice",
      "outputs": [],
      "payable": false,
      "stateMutability": "nonpayable",
      "type": "function"
    },
    {
      "constant": false,
      "inputs": [
        {
          "name": "_value",
          "type": "uint256"
        }
      ],
      "name": "changeSellCommission",
      "outputs": [],
      "payable": false,
      "stateMutability": "nonpayable",
      "type": "function"
    },
    {
      "constant": false,
      "inputs": [
        {
          "name": "_amount",
          "type": "uint256"
        }
      ],
      "name": "depositGemOwner",
      "outputs": [],
      "payable": false,
      "stateMutability": "nonpayable",
      "type": "function"
    },
    {
      "constant": false,
      "inputs": [
        {
          "name": "_name",
          "type": "bytes32"
        },
        {
          "name": "_hash",
          "type": "bytes32"
        }
      ],
      "name": "AddBuilding",
      "outputs": [],
      "payable": false,
      "stateMutability": "nonpayable",
      "type": "function"
    },
    {
      "constant": false,
      "inputs": [
        {
          "name": "_ID",
          "type": "uint256"
        }
      ],
      "name": "DeleteBuilding",
      "outputs": [],
      "payable": false,
      "stateMutability": "nonpayable",
      "type": "function"
    },
    {
      "constant": false,
      "inputs": [
        {
          "name": "_name",
          "type": "bytes32"
        },
        {
          "name": "_hash",
          "type": "bytes32"
        }
      ],
      "name": "AddTroops",
      "outputs": [],
      "payable": false,
      "stateMutability": "nonpayable",
      "type": "function"
    },
    {
      "constant": false,
      "inputs": [
        {
          "name": "_ID",
          "type": "uint256"
        }
      ],
      "name": "DeleteTroops",
      "outputs": [],
      "payable": false,
      "stateMutability": "nonpayable",
      "type": "function"
    },
    {
      "constant": false,
      "inputs": [
        {
          "name": "_ID",
          "type": "uint256"
        },
        {
          "name": "_level",
          "type": "uint256"
        },
        {
          "name": "_RequiredBuilding",
          "type": "uint256"
        },
        {
          "name": "_RequiredLevel",
          "type": "uint256"
        },
        {
          "name": "_RequiredGold",
          "type": "uint256"
        },
        {
          "name": "_RequiredElixr",
          "type": "uint256"
        },
        {
          "name": "_RequiredGem",
          "type": "uint256"
        },
        {
          "name": "_GoldRate",
          "type": "uint256"
        },
        {
          "name": "_ElixrRate",
          "type": "uint256"
        },
        {
          "name": "_GemReward",
          "type": "uint256"
        },
        {
          "name": "_Time",
          "type": "uint256"
        }
      ],
      "name": "ChangeBuildingUpgrade",
      "outputs": [],
      "payable": false,
      "stateMutability": "nonpayable",
      "type": "function"
    },
    {
      "constant": false,
      "inputs": [
        {
          "name": "_ID",
          "type": "uint256"
        },
        {
          "name": "_Defence",
          "type": "uint256"
        },
        {
          "name": "_Attack",
          "type": "uint256"
        },
        {
          "name": "_Steal",
          "type": "uint256"
        },
        {
          "name": "_RequiredGold",
          "type": "uint256"
        },
        {
          "name": "_RequiredElixr",
          "type": "uint256"
        },
        {
          "name": "_RequiredGem",
          "type": "uint256"
        },
        {
          "name": "_Time",
          "type": "uint256"
        }
      ],
      "name": "ChangeTroopTrain",
      "outputs": [],
      "payable": false,
      "stateMutability": "nonpayable",
      "type": "function"
    },
    {
      "constant": false,
      "inputs": [
        {
          "name": "_User",
          "type": "address"
        },
        {
          "name": "_amount",
          "type": "uint256"
        }
      ],
      "name": "SubGemFromVillage",
      "outputs": [
        {
          "name": "",
          "type": "bool"
        }
      ],
      "payable": false,
      "stateMutability": "nonpayable",
      "type": "function"
    },
    {
      "constant": false,
      "inputs": [
        {
          "name": "_User",
          "type": "address"
        },
        {
          "name": "_amount",
          "type": "uint256"
        }
      ],
      "name": "AddGemFromVillage",
      "outputs": [
        {
          "name": "",
          "type": "bool"
        }
      ],
      "payable": false,
      "stateMutability": "nonpayable",
      "type": "function"
    }
  ],
  "bytecode": "0x60806040523480156200001157600080fd5b5060405160208062005a51833981018060405260208110156200003357600080fd5b8101908080519060200190929190505050336000806101000a81548173ffffffffffffffffffffffffffffffffffffffff021916908373ffffffffffffffffffffffffffffffffffffffff16021790555080600a60006101000a81548173ffffffffffffffffffffffffffffffffffffffff021916908373ffffffffffffffffffffffffffffffffffffffff1602179055505061597b80620000d66000396000f3fe6080604052600436106101f95760003560e01c8063934c0ae91161010d578063cf192ea2116100a0578063e7f7fbbe1161006f578063e7f7fbbe1461104f578063ec9926a01461108a578063ee12a4fa146110fd578063ee93150214611158578063f6cfaabe146111da576101f9565b8063cf192ea214610dc9578063d00bd52914610e5a578063d668fc1e14610fe6578063de5617f114611014576101f9565b8063a774475d116100dc578063a774475d14610c42578063b3c49c7714610c99578063bcf841fb14610d46578063c01ed26b14610d5d576101f9565b8063934c0ae914610a7d57806396fa49e614610af057806398722eb214610b1b578063a450091d14610b46576101f9565b806341ebf8f511610190578063739b1f161161015f578063739b1f16146108bc5780638410b8c6146109015780638da5cb5b146109925780638e4c7d56146109e95780638f32d59b14610a4e576101f9565b806341ebf8f51461061a5780635f63e07b1461065557806360bdbe79146106f55780636eb285c114610730576101f9565b80632bb7fc6c116101cc5780632bb7fc6c1461046d5780632fff7574146104a85780633d8599d4146104e3578063411356781461051e576101f9565b8063080b365a146101fe5780630876a5c3146102435780631fcaa34d146102bc578063262adefd14610432575b600080fd5b34801561020a57600080fd5b506102416004803603604081101561022157600080fd5b81019080803590602001909291908035906020019092919050505061123f565b005b34801561024f57600080fd5b5061027c6004803603602081101561026657600080fd5b81019080803590602001909291905050506113a4565b6040518088815260200187815260200186815260200185815260200184815260200183815260200182815260200197505050505050505060405180910390f35b3480156102c857600080fd5b50610430600480360360808110156102df57600080fd5b81019080803590602001909291908035906020019064010000000081111561030657600080fd5b82018360208201111561031857600080fd5b8035906020019184600183028401116401000000008311171561033a57600080fd5b91908080601f016020809104026020016040519081016040528093929190818152602001838380828437600081840152601f19601f820116905080830192505050505050509192919290803560ff169060200190929190803590602001906401000000008111156103aa57600080fd5b8201836020820111156103bc57600080fd5b803590602001918460018302840111640100000000831117156103de57600080fd5b91908080601f016020809104026020016040519081016040528093929190818152602001838380828437600081840152601f19601f8201169050808301925050505050505091929192905050506114cb565b005b34801561043e57600080fd5b5061046b6004803603602081101561045557600080fd5b8101908080359060200190929190505050611757565b005b34801561047957600080fd5b506104a66004803603602081101561049057600080fd5b8101908080359060200190929190505050611983565b005b3480156104b457600080fd5b506104e1600480360360208110156104cb57600080fd5b8101908080359060200190929190505050611b26565b005b3480156104ef57600080fd5b5061051c6004803603602081101561050657600080fd5b8101908080359060200190929190505050611e56565b005b34801561052a57600080fd5b50610533611fe5565b60405180806020018060200180602001848103845287818151815260200191508051906020019060200280838360005b8381101561057e578082015181840152602081019050610563565b50505050905001848103835286818151815260200191508051906020019060200280838360005b838110156105c05780820151818401526020810190506105a5565b50505050905001848103825285818151815260200191508051906020019060200280838360005b838110156106025780820151818401526020810190506105e7565b50505050905001965050505050505060405180910390f35b34801561062657600080fd5b506106536004803603602081101561063d57600080fd5b81019080803590602001909291905050506121ed565b005b34801561066157600080fd5b506106f3600480360361016081101561067957600080fd5b8101908080359060200190929190803590602001909291908035906020019092919080359060200190929190803590602001909291908035906020019092919080359060200190929190803590602001909291908035906020019092919080359060200190929190803590602001909291905050506122f5565b005b34801561070157600080fd5b5061072e6004803603602081101561071857600080fd5b81019080803590602001909291905050506124ff565b005b34801561073c57600080fd5b506107456125fa565b60405180806020018060200180602001806020018060200186810386528b818151815260200191508051906020019060200280838360005b8381101561079857808201518184015260208101905061077d565b5050505090500186810385528a818151815260200191508051906020019060200280838360005b838110156107da5780820151818401526020810190506107bf565b50505050905001868103845289818151815260200191508051906020019060200280838360005b8381101561081c578082015181840152602081019050610801565b50505050905001868103835288818151815260200191508051906020019060200280838360005b8381101561085e578082015181840152602081019050610843565b50505050905001868103825287818151815260200191508051906020019060200280838360005b838110156108a0578082015181840152602081019050610885565b505050509050019a505050505050505050505060405180910390f35b3480156108c857600080fd5b506108ff600480360360408110156108df57600080fd5b810190808035906020019092919080359060200190929190505050612985565b005b34801561090d57600080fd5b506109446004803603604081101561092457600080fd5b810190808035906020019092919080359060200190929190505050612a99565b604051808a8152602001898152602001888152602001878152602001868152602001858152602001848152602001838152602001828152602001995050505050505050505060405180910390f35b34801561099e57600080fd5b506109a7612cac565b604051808273ffffffffffffffffffffffffffffffffffffffff1673ffffffffffffffffffffffffffffffffffffffff16815260200191505060405180910390f35b3480156109f557600080fd5b50610a4c60048036036060811015610a0c57600080fd5b81019080803573ffffffffffffffffffffffffffffffffffffffff1690602001909291908035906020019092919080359060200190929190505050612cd5565b005b348015610a5a57600080fd5b50610a63613154565b604051808215151515815260200191505060405180910390f35b348015610a8957600080fd5b50610ad660048036036040811015610aa057600080fd5b81019080803573ffffffffffffffffffffffffffffffffffffffff169060200190929190803590602001909291905050506131ab565b604051808215151515815260200191505060405180910390f35b348015610afc57600080fd5b50610b0561335c565b6040518082815260200191505060405180910390f35b348015610b2757600080fd5b50610b30613362565b6040518082815260200191505060405180910390f35b348015610b5257600080fd5b50610b5b613368565b60405180806020018060200180602001848103845287818151815260200191508051906020019060200280838360005b83811015610ba6578082015181840152602081019050610b8b565b50505050905001848103835286818151815260200191508051906020019060200280838360005b83811015610be8578082015181840152602081019050610bcd565b50505050905001848103825285818151815260200191508051906020019060200280838360005b83811015610c2a578082015181840152602081019050610c0f565b50505050905001965050505050505060405180910390f35b348015610c4e57600080fd5b50610c57613570565b604051808273ffffffffffffffffffffffffffffffffffffffff1673ffffffffffffffffffffffffffffffffffffffff16815260200191505060405180910390f35b348015610ca557600080fd5b50610ce860048036036020811015610cbc57600080fd5b81019080803573ffffffffffffffffffffffffffffffffffffffff169060200190929190505050613596565b6040518080602001838152602001828103825284818151815260200191508051906020019060200280838360005b83811015610d31578082015181840152602081019050610d16565b50505050905001935050505060405180910390f35b348015610d5257600080fd5b50610d5b6136b3565b005b348015610d6957600080fd5b50610d72613834565b6040518080602001828103825283818151815260200191508051906020019060200280838360005b83811015610db5578082015181840152602081019050610d9a565b505050509050019250505060405180910390f35b348015610dd557600080fd5b50610e1860048036036020811015610dec57600080fd5b81019080803573ffffffffffffffffffffffffffffffffffffffff169060200190929190505050613b37565b604051808273ffffffffffffffffffffffffffffffffffffffff1673ffffffffffffffffffffffffffffffffffffffff16815260200191505060405180910390f35b348015610e6657600080fd5b50610e6f613ba2565b60405180806020018060200180602001806020018060200186810386528b818151815260200191508051906020019060200280838360005b83811015610ec2578082015181840152602081019050610ea7565b5050505090500186810385528a818151815260200191508051906020019060200280838360005b83811015610f04578082015181840152602081019050610ee9565b50505050905001868103845289818151815260200191508051906020019060200280838360005b83811015610f46578082015181840152602081019050610f2b565b50505050905001868103835288818151815260200191508051906020019060200280838360005b83811015610f88578082015181840152602081019050610f6d565b50505050905001868103825287818151815260200191508051906020019060200280838360005b83811015610fca578082015181840152602081019050610faf565b505050509050019a505050505050505050505060405180910390f35b61101260048036036020811015610ffc57600080fd5b8101908080359060200190929190505050613f7d565b005b34801561102057600080fd5b5061104d6004803603602081101561103757600080fd5b81019080803590602001909291905050506145b8565b005b34801561105b57600080fd5b506110886004803603602081101561107257600080fd5b8101908080359060200190929190505050614708565b005b34801561109657600080fd5b506110e3600480360360408110156110ad57600080fd5b81019080803573ffffffffffffffffffffffffffffffffffffffff16906020019092919080359060200190929190505050614925565b604051808215151515815260200191505060405180910390f35b34801561110957600080fd5b506111566004803603604081101561112057600080fd5b81019080803573ffffffffffffffffffffffffffffffffffffffff16906020019092919080359060200190929190505050614ad6565b005b34801561116457600080fd5b506111d8600480360361010081101561117c57600080fd5b810190808035906020019092919080359060200190929190803590602001909291908035906020019092919080359060200190929190803590602001909291908035906020019092919080359060200190929190505050614f37565b005b3480156111e657600080fd5b50611229600480360360208110156111fd57600080fd5b81019080803573ffffffffffffffffffffffffffffffffffffffff169060200190929190505050615103565b6040518082815260200191505060405180910390f35b611247613154565b6112b9576040517f08c379a00000000000000000000000000000000000000000000000000000000081526004018080602001828103825260208152602001807f4f776e61626c653a2063616c6c6572206973206e6f7420746865206f776e657281525060200191505060405180910390fd5b6112c16157af565b828160000181815250508181602001818152505060018160400190151590811515815250506001600501819080600181540180825580915050906001820390600052602060002090600a020160009091929091909150600082015181600001556020820151816001015560408201518160020160006101000a81548160ff021916908315150217905550606082015181600301600082015181600001556020820151816001015560408201518160020155606082015181600301556080820151816004015560a0820151816005015560c082015181600601555050505050505050565b6000806000806000806000600160050188815481106113bf57fe5b90600052602060002090600a0201600301600001549650600160050188815481106113e657fe5b90600052602060002090600a02016003016001015495506001600501888154811061140d57fe5b90600052602060002090600a02016003016002015494506001600501888154811061143457fe5b90600052602060002090600a02016003016003015493506001600501888154811061145b57fe5b90600052602060002090600a02016003016004015492506001600501888154811061148257fe5b90600052602060002090600a0201600301600501549150600160050188815481106114a957fe5b90600052602060002090600a0201600301600601549050919395979092949650565b6114d3613154565b611545576040517f08c379a00000000000000000000000000000000000000000000000000000000081526004018080602001828103825260208152602001807f4f776e61626c653a2063616c6c6572206973206e6f7420746865206f776e657281525060200191505060405180910390fd5b600a60009054906101000a900473ffffffffffffffffffffffffffffffffffffffff1673ffffffffffffffffffffffffffffffffffffffff16635fb8087e85858585336040518663ffffffff1660e01b815260040180868152602001806020018560ff1660ff168152602001806020018473ffffffffffffffffffffffffffffffffffffffff1673ffffffffffffffffffffffffffffffffffffffff168152602001838103835287818151815260200191508051906020019080838360005b8381101561161f578082015181840152602081019050611604565b50505050905090810190601f16801561164c5780820380516001836020036101000a031916815260200191505b50838103825285818151815260200191508051906020019080838360005b8381101561168557808201518184015260208101905061166a565b50505050905090810190601f1680156116b25780820380516001836020036101000a031916815260200191505b50975050505050505050602060405180830381600087803b1580156116d657600080fd5b505af11580156116ea573d6000803e3d6000fd5b505050506040513d602081101561170057600080fd5b8101908080519060200190929190505050600760006101000a81548173ffffffffffffffffffffffffffffffffffffffff021916908373ffffffffffffffffffffffffffffffffffffffff16021790555050505050565b8080600160020160003373ffffffffffffffffffffffffffffffffffffffff1673ffffffffffffffffffffffffffffffffffffffff168152602001908152602001600020600101541015611813576040517f08c379a00000000000000000000000000000000000000000000000000000000081526004018080602001828103825260148152602001807f696e73756666696369656e742062616c616e636500000000000000000000000081525060200191505060405180910390fd5b611829338360016151529092919063ffffffff16565b600760009054906101000a900473ffffffffffffffffffffffffffffffffffffffff1673ffffffffffffffffffffffffffffffffffffffff1663a9059cbb33846040518363ffffffff1660e01b8152600401808373ffffffffffffffffffffffffffffffffffffffff1673ffffffffffffffffffffffffffffffffffffffff16815260200182815260200192505050602060405180830381600087803b1580156118d257600080fd5b505af11580156118e6573d6000803e3d6000fd5b505050506040513d60208110156118fc57600080fd5b810190808051906020019092919050505061197f576040517f08c379a00000000000000000000000000000000000000000000000000000000081526004018080602001828103825260148152602001807f546f6b656e205472616e73666572204572726f7200000000000000000000000081525060200191505060405180910390fd5b5050565b600760009054906101000a900473ffffffffffffffffffffffffffffffffffffffff1673ffffffffffffffffffffffffffffffffffffffff166323b872dd3330846040518463ffffffff1660e01b8152600401808473ffffffffffffffffffffffffffffffffffffffff1673ffffffffffffffffffffffffffffffffffffffff1681526020018373ffffffffffffffffffffffffffffffffffffffff1673ffffffffffffffffffffffffffffffffffffffff1681526020018281526020019350505050602060405180830381600087803b158015611a6057600080fd5b505af1158015611a74573d6000803e3d6000fd5b505050506040513d6020811015611a8a57600080fd5b8101908080519060200190929190505050611b0d576040517f08c379a00000000000000000000000000000000000000000000000000000000081526004018080602001828103825260148152602001807f546f6b656e205472616e73666572204572726f7200000000000000000000000081525060200191505060405180910390fd5b611b23338260016152b09092919063ffffffff16565b50565b6001600301805490508160008110158015611b4057508181105b611bb2576040517f08c379a00000000000000000000000000000000000000000000000000000000081526004018080602001828103825260148152602001807f496e76616c6964204172726179204c656e67746800000000000000000000000081525060200191505060405180910390fd5b611bba6157e6565b60016003018481548110611bca57fe5b90600052602060002090600602016040518060c00160405290816000820160009054906101000a900473ffffffffffffffffffffffffffffffffffffffff1673ffffffffffffffffffffffffffffffffffffffff1673ffffffffffffffffffffffffffffffffffffffff1681526020016001820160009054906101000a900473ffffffffffffffffffffffffffffffffffffffff1673ffffffffffffffffffffffffffffffffffffffff1673ffffffffffffffffffffffffffffffffffffffff168152602001600282015481526020016003820160009054906101000a900473ffffffffffffffffffffffffffffffffffffffff1673ffffffffffffffffffffffffffffffffffffffff1673ffffffffffffffffffffffffffffffffffffffff168152602001600482015481526020016005820160009054906101000a900460ff1615151515815250509050611d85600180016000836000015173ffffffffffffffffffffffffffffffffffffffff1673ffffffffffffffffffffffffffffffffffffffff16815260200190815260200160002060009054906101000a900473ffffffffffffffffffffffffffffffffffffffff1630615354565b611d93816020015133615354565b6001806003018581548110611da457fe5b906000526020600020906006020160050160006101000a81548160ff02191690831515021790555033600180016000836000015173ffffffffffffffffffffffffffffffffffffffff1673ffffffffffffffffffffffffffffffffffffffff16815260200190815260200160002060006101000a81548173ffffffffffffffffffffffffffffffffffffffff021916908373ffffffffffffffffffffffffffffffffffffffff16021790555050505050565b611e5e613154565b611ed0576040517f08c379a00000000000000000000000000000000000000000000000000000000081526004018080602001828103825260208152602001807f4f776e61626c653a2063616c6c6572206973206e6f7420746865206f776e657281525060200191505060405180910390fd5b6001600501805490508160008110158015611eea57508181105b611f5c576040517f08c379a00000000000000000000000000000000000000000000000000000000081526004018080602001828103825260148152602001807f496e76616c6964204172726179204c656e67746800000000000000000000000081525060200191505060405180910390fd5b60016005018381548110611f6c57fe5b90600052602060002090600a020160008082016000905560018201600090556002820160006101000a81549060ff02191690556003820160008082016000905560018201600090556002820160009055600382016000905560048201600090556005820160009055600682016000905550505050505050565b6060806060600080600090505b60016004018054905081101561204c576001600401818154811061201257fe5b906000526020600020906004020160020160009054906101000a900460ff161561203f5781806001019250505b8080600101915050611ff2565b5060608160405190808252806020026020018201604052801561207e5781602001602082028038833980820191505090505b5090506060826040519080825280602002602001820160405280156120b25781602001602082028038833980820191505090505b5090506060836040519080825280602002602001820160405280156120e65781602001602082028038833980820191505090505b5090506000935060008090505b6001600401805490508110156121da576001600401818154811061211357fe5b906000526020600020906004020160020160009054906101000a900460ff16156121cd578082868151811061214457fe5b6020026020010181815250506001600401818154811061216057fe5b90600052602060002090600402016000015484868151811061217e57fe5b6020026020010181815250506001600401818154811061219a57fe5b9060005260206000209060040201600101548386815181106121b857fe5b60200260200101818152505084806001019550505b80806001019150506120f3565b5080838396509650965050505050909192565b6121f5613154565b612267576040517f08c379a00000000000000000000000000000000000000000000000000000000081526004018080602001828103825260208152602001807f4f776e61626c653a2063616c6c6572206973206e6f7420746865206f776e657281525060200191505060405180910390fd5b60008110158015612279575060648111155b6122eb576040517f08c379a000000000000000000000000000000000000000000000000000000000815260040180806020018281038252601a8152602001807f56616c7565206d75737420626520622f77203020746f2031303000000000000081525060200191505060405180910390fd5b8060098190555050565b6001600401805490508b6000811015801561230f57508181105b612381576040517f08c379a00000000000000000000000000000000000000000000000000000000081526004018080602001828103825260148152602001807f496e76616c6964204172726179204c656e67746800000000000000000000000081525060200191505060405180910390fd5b612389613154565b6123fb576040517f08c379a00000000000000000000000000000000000000000000000000000000081526004018080602001828103825260208152602001807f4f776e61626c653a2063616c6c6572206973206e6f7420746865206f776e657281525060200191505060405180910390fd5b612403615860565b8b8160000181815250508a816020018181525050898160400181815250508881606001818152505087816080018181525050868160a0018181525050858160c0018181525050848160e001818152505083816101000181815250508060016004018f8154811061246f57fe5b906000526020600020906004020160030160008f8152602001908152602001600020600082015181600001556020820151816001015560408201518160020155606082015181600301556080820151816004015560a0820151816005015560c0820151816006015560e0820151816007015561010082015181600801559050505050505050505050505050505050565b612507613154565b612579576040517f08c379a00000000000000000000000000000000000000000000000000000000081526004018080602001828103825260208152602001807f4f776e61626c653a2063616c6c6572206973206e6f7420746865206f776e657281525060200191505060405180910390fd5b60008110156125f0576040517f08c379a000000000000000000000000000000000000000000000000000000000815260040180806020018281038252601f8152602001807f56616c7565206d7573742062652067726561746572207468616e207a65726f0081525060200191505060405180910390fd5b8060088190555050565b6060806060806060600080600090505b600160030180549050811015612663576001600301818154811061262a57fe5b906000526020600020906006020160050160009054906101000a900460ff166126565781806001019250505b808060010191505061260a565b506060816040519080825280602002602001820160405280156126955781602001602082028038833980820191505090505b5090506060826040519080825280602002602001820160405280156126c95781602001602082028038833980820191505090505b5090506060836040519080825280602002602001820160405280156126fd5781602001602082028038833980820191505090505b5090506060846040519080825280602002602001820160405280156127315781602001602082028038833980820191505090505b5090506060856040519080825280602002602001820160405280156127655781602001602082028038833980820191505090505b5090506000955060008090505b600160030180549050811015612968576001600301818154811061279257fe5b906000526020600020906006020160050160009054906101000a900460ff1661295b57600160030181815481106127c557fe5b906000526020600020906006020160000160009054906101000a900473ffffffffffffffffffffffffffffffffffffffff1686888151811061280357fe5b602002602001019073ffffffffffffffffffffffffffffffffffffffff16908173ffffffffffffffffffffffffffffffffffffffff16815250506001600301818154811061284d57fe5b906000526020600020906006020160010160009054906101000a900473ffffffffffffffffffffffffffffffffffffffff1685888151811061288b57fe5b602002602001019073ffffffffffffffffffffffffffffffffffffffff16908173ffffffffffffffffffffffffffffffffffffffff1681525050600160030181815481106128d557fe5b9060005260206000209060060201600201548488815181106128f357fe5b6020026020010181815250506001600301818154811061290f57fe5b90600052602060002090600602016004015483888151811061292d57fe5b6020026020010181815250508082888151811061294657fe5b60200260200101818152505086806001019750505b8080600101915050612772565b5084848484849a509a509a509a509a505050505050509091929394565b61298d613154565b6129ff576040517f08c379a00000000000000000000000000000000000000000000000000000000081526004018080602001828103825260208152602001807f4f776e61626c653a2063616c6c6572206973206e6f7420746865206f776e657281525060200191505060405180910390fd5b612a076158ac565b8281600001818152505081816020018181525050600181604001901515908115158152505060016004018190806001815401808255809150509060018203906000526020600020906004020160009091929091909150600082015181600001556020820151816001015560408201518160020160006101000a81548160ff021916908315150217905550505050505050565b600080600080600080600080600060016004018b81548110612ab757fe5b906000526020600020906004020160030160008b815260200190815260200160002060000154985060016004018b81548110612aef57fe5b906000526020600020906004020160030160008b815260200190815260200160002060010154975060016004018b81548110612b2757fe5b906000526020600020906004020160030160008b815260200190815260200160002060020154965060016004018b81548110612b5f57fe5b906000526020600020906004020160030160008b815260200190815260200160002060030154955060016004018b81548110612b9757fe5b906000526020600020906004020160030160008b815260200190815260200160002060040154945060016004018b81548110612bcf57fe5b906000526020600020906004020160030160008b815260200190815260200160002060050154935060016004018b81548110612c0757fe5b906000526020600020906004020160030160008b815260200190815260200160002060060154925060016004018b81548110612c3f57fe5b906000526020600020906004020160030160008b815260200190815260200160002060070154915060016004018b81548110612c7757fe5b906000526020600020906004020160030160008b81526020019081526020016000206008015490509295985092959850929598565b60008060009054906101000a900473ffffffffffffffffffffffffffffffffffffffff16905090565b823373ffffffffffffffffffffffffffffffffffffffff166001800160008373ffffffffffffffffffffffffffffffffffffffff1673ffffffffffffffffffffffffffffffffffffffff16815260200190815260200160002060009054906101000a900473ffffffffffffffffffffffffffffffffffffffff1673ffffffffffffffffffffffffffffffffffffffff1614612dd8576040517f08c379a00000000000000000000000000000000000000000000000000000000081526004018080602001828103825260198152602001807f55736572206973206e6f742056696c6c616765206f776e65720000000000000081525060200191505060405180910390fd5b612de260016153f9565b8260008110158015612df45750815181105b612e66576040517f08c379a00000000000000000000000000000000000000000000000000000000081526004018080602001828103825260138152602001807f496e76616c696420417272617920496e6465780000000000000000000000000081525060200191505060405180910390fd5b60008511612edc576040517f08c379a00000000000000000000000000000000000000000000000000000000081526004018080602001828103825260198152602001807f6d7573742062652067726561746572207468616e207a65726f0000000000000081525060200191505060405180910390fd5b612f02612ee960016153f9565b8581518110612ef457fe5b602002602001015187615354565b612f0a6157e6565b86816000019073ffffffffffffffffffffffffffffffffffffffff16908173ffffffffffffffffffffffffffffffffffffffff168152505033816020019073ffffffffffffffffffffffffffffffffffffffff16908173ffffffffffffffffffffffffffffffffffffffff168152505085816080018181525050848160400181815250506001600301819080600181540180825580915050906001820390600052602060002090600602016000909192909190915060008201518160000160006101000a81548173ffffffffffffffffffffffffffffffffffffffff021916908373ffffffffffffffffffffffffffffffffffffffff16021790555060208201518160010160006101000a81548173ffffffffffffffffffffffffffffffffffffffff021916908373ffffffffffffffffffffffffffffffffffffffff1602179055506040820151816002015560608201518160030160006101000a81548173ffffffffffffffffffffffffffffffffffffffff021916908373ffffffffffffffffffffffffffffffffffffffff1602179055506080820151816004015560a08201518160050160006101000a81548160ff021916908315150217905550505050306001800160008973ffffffffffffffffffffffffffffffffffffffff1673ffffffffffffffffffffffffffffffffffffffff16815260200190815260200160002060006101000a81548173ffffffffffffffffffffffffffffffffffffffff021916908373ffffffffffffffffffffffffffffffffffffffff16021790555050505050505050565b60008060009054906101000a900473ffffffffffffffffffffffffffffffffffffffff1673ffffffffffffffffffffffffffffffffffffffff163373ffffffffffffffffffffffffffffffffffffffff1614905090565b60008073ffffffffffffffffffffffffffffffffffffffff166001800160003373ffffffffffffffffffffffffffffffffffffffff1673ffffffffffffffffffffffffffffffffffffffff16815260200190815260200160002060009054906101000a900473ffffffffffffffffffffffffffffffffffffffff1673ffffffffffffffffffffffffffffffffffffffff1614156132b0576040517f08c379a00000000000000000000000000000000000000000000000000000000081526004018080602001828103825260158152602001807f63616c6c6572206973206e6f742056696c6c616765000000000000000000000081525060200191505060405180910390fd5b60008211613326576040517f08c379a000000000000000000000000000000000000000000000000000000000815260040180806020018281038252601f8152602001807f56616c7565206d7573742062652067726561746572207468616e207a65726f0081525060200191505060405180910390fd5b61333c838360016151529092919063ffffffff16565b613352308360016152b09092919063ffffffff16565b6001905092915050565b60095481565b60085481565b6060806060600080600090505b6001600501805490508110156133cf576001600501818154811061339557fe5b90600052602060002090600a020160020160009054906101000a900460ff16156133c25781806001019250505b8080600101915050613375565b506060816040519080825280602002602001820160405280156134015781602001602082028038833980820191505090505b5090506060826040519080825280602002602001820160405280156134355781602001602082028038833980820191505090505b5090506060836040519080825280602002602001820160405280156134695781602001602082028038833980820191505090505b5090506000935060008090505b60016005018054905081101561355d576001600501818154811061349657fe5b90600052602060002090600a020160020160009054906101000a900460ff161561355057808286815181106134c757fe5b602002602001018181525050600160050181815481106134e357fe5b90600052602060002090600a02016000015484868151811061350157fe5b6020026020010181815250506001600501818154811061351d57fe5b90600052602060002090600a02016001015483868151811061353b57fe5b60200260200101818152505084806001019550505b8080600101915050613476565b5080838396509650965050505050909192565b600760009054906101000a900473ffffffffffffffffffffffffffffffffffffffff1681565b60606000600160020160008473ffffffffffffffffffffffffffffffffffffffff1673ffffffffffffffffffffffffffffffffffffffff16815260200190815260200160002060000180548060200260200160405190810160405280929190818152602001828054801561365f57602002820191906000526020600020905b8160009054906101000a900473ffffffffffffffffffffffffffffffffffffffff1673ffffffffffffffffffffffffffffffffffffffff1681526020019060010190808311613615575b50505050509150600160020160008473ffffffffffffffffffffffffffffffffffffffff1673ffffffffffffffffffffffffffffffffffffffff168152602001908152602001600020600101549050915091565b60006136bf60016153f9565b51905060006136db826008540a836154cb90919063ffffffff16565b90506136f3338260016151529092919063ffffffff16565b613709308260016152b09092919063ffffffff16565b6000600a60009054906101000a900473ffffffffffffffffffffffffffffffffffffffff1673ffffffffffffffffffffffffffffffffffffffff16638e6c660c6040518163ffffffff1660e01b8152600401602060405180830381600087803b15801561377557600080fd5b505af1158015613789573d6000803e3d6000fd5b505050506040513d602081101561379f57600080fd5b8101908080519060200190929190505050905060016000018190806001815401808255809150509060018203906000526020600020016000909192909190916101000a81548173ffffffffffffffffffffffffffffffffffffffff021916908373ffffffffffffffffffffffffffffffffffffffff1602179055505061382f81600161550590919063ffffffff16565b505050565b6060600080600090505b60016000018054905081101561395657600073ffffffffffffffffffffffffffffffffffffffff166138a96001600001838154811061387957fe5b9060005260206000200160009054906101000a900473ffffffffffffffffffffffffffffffffffffffff16613b37565b73ffffffffffffffffffffffffffffffffffffffff161415801561393b57503373ffffffffffffffffffffffffffffffffffffffff16613922600160000183815481106138f257fe5b9060005260206000200160009054906101000a900473ffffffffffffffffffffffffffffffffffffffff16613b37565b73ffffffffffffffffffffffffffffffffffffffff1614155b156139495781806001019250505b808060010191505061383e565b506060816040519080825280602002602001820160405280156139885781602001602082028038833980820191505090505b5090506000915060008090505b600160000180549050811015613b2e57600073ffffffffffffffffffffffffffffffffffffffff16613a00600160000183815481106139d057fe5b9060005260206000200160009054906101000a900473ffffffffffffffffffffffffffffffffffffffff16613b37565b73ffffffffffffffffffffffffffffffffffffffff1614158015613a9257503373ffffffffffffffffffffffffffffffffffffffff16613a7960016000018381548110613a4957fe5b9060005260206000200160009054906101000a900473ffffffffffffffffffffffffffffffffffffffff16613b37565b73ffffffffffffffffffffffffffffffffffffffff1614155b15613b215760016000018181548110613aa757fe5b9060005260206000200160009054906101000a900473ffffffffffffffffffffffffffffffffffffffff16828481518110613ade57fe5b602002602001019073ffffffffffffffffffffffffffffffffffffffff16908173ffffffffffffffffffffffffffffffffffffffff168152505082806001019350505b8080600101915050613995565b50809250505090565b60006001800160008373ffffffffffffffffffffffffffffffffffffffff1673ffffffffffffffffffffffffffffffffffffffff16815260200190815260200160002060009054906101000a900473ffffffffffffffffffffffffffffffffffffffff169050919050565b6060806060806060600080600090505b600160030180549050811015613c0c5760016003018181548110613bd257fe5b906000526020600020906006020160050160009054906101000a900460ff1615613bff5781806001019250505b8080600101915050613bb2565b50606081604051908082528060200260200182016040528015613c3e5781602001602082028038833980820191505090505b509050606082604051908082528060200260200182016040528015613c725781602001602082028038833980820191505090505b509050606083604051908082528060200260200182016040528015613ca65781602001602082028038833980820191505090505b509050606084604051908082528060200260200182016040528015613cda5781602001602082028038833980820191505090505b509050606085604051908082528060200260200182016040528015613d0e5781602001602082028038833980820191505090505b5090506000955060008090505b600160030180549050811015613f605760016003018181548110613d3b57fe5b906000526020600020906006020160050160009054906101000a900460ff1615613f535760016003018181548110613d6f57fe5b906000526020600020906006020160000160009054906101000a900473ffffffffffffffffffffffffffffffffffffffff16868881518110613dad57fe5b602002602001019073ffffffffffffffffffffffffffffffffffffffff16908173ffffffffffffffffffffffffffffffffffffffff168152505060016003018181548110613df757fe5b906000526020600020906006020160010160009054906101000a900473ffffffffffffffffffffffffffffffffffffffff16858881518110613e3557fe5b602002602001019073ffffffffffffffffffffffffffffffffffffffff16908173ffffffffffffffffffffffffffffffffffffffff168152505060016003018181548110613e7f57fe5b906000526020600020906006020160030160009054906101000a900473ffffffffffffffffffffffffffffffffffffffff16848881518110613ebd57fe5b602002602001019073ffffffffffffffffffffffffffffffffffffffff16908173ffffffffffffffffffffffffffffffffffffffff168152505060016003018181548110613f0757fe5b906000526020600020906006020160040154838881518110613f2557fe5b60200260200101818152505080828881518110613f3e57fe5b60200260200101818152505086806001019750505b8080600101915050613d1b565b5084848484849a509a509a509a509a505050505050509091929394565b6001600301805490508160008110158015613f9757508181105b614009576040517f08c379a00000000000000000000000000000000000000000000000000000000081526004018080602001828103825260148152602001807f496e76616c6964204172726179204c656e67746800000000000000000000000081525060200191505060405180910390fd5b6140116157e6565b6001600301848154811061402157fe5b90600052602060002090600602016040518060c00160405290816000820160009054906101000a900473ffffffffffffffffffffffffffffffffffffffff1673ffffffffffffffffffffffffffffffffffffffff1673ffffffffffffffffffffffffffffffffffffffff1681526020016001820160009054906101000a900473ffffffffffffffffffffffffffffffffffffffff1673ffffffffffffffffffffffffffffffffffffffff1673ffffffffffffffffffffffffffffffffffffffff168152602001600282015481526020016003820160009054906101000a900473ffffffffffffffffffffffffffffffffffffffff1673ffffffffffffffffffffffffffffffffffffffff1673ffffffffffffffffffffffffffffffffffffffff168152602001600482015481526020016005820160009054906101000a900460ff16151515158152505090506141dc600180016000836000015173ffffffffffffffffffffffffffffffffffffffff1673ffffffffffffffffffffffffffffffffffffffff16815260200190815260200160002060009054906101000a900473ffffffffffffffffffffffffffffffffffffffff1630615354565b6141ea816020015133615631565b6141f83482608001516156d7565b600061420460016153f9565b51905060006142336002614225846008540a856154cb90919063ffffffff16565b61575090919063ffffffff16565b905061424b338260016151529092919063ffffffff16565b60006142756064614267600954856154cb90919063ffffffff16565b61575090919063ffffffff16565b9050600061428c828461577690919063ffffffff16565b90506142a885602001518360016152b09092919063ffffffff16565b6142be308260016152b09092919063ffffffff16565b846020015173ffffffffffffffffffffffffffffffffffffffff166108fc349081150290604051600060405180830381858888f19350505050158015614308573d6000803e3d6000fd5b50336001600301898154811061431a57fe5b906000526020600020906006020160030160006101000a81548173ffffffffffffffffffffffffffffffffffffffff021916908373ffffffffffffffffffffffffffffffffffffffff160217905550600180600301898154811061437a57fe5b906000526020600020906006020160050160006101000a81548160ff0219169083151502179055506143ba8560000151600161550590919063ffffffff16565b60016002016000866020015173ffffffffffffffffffffffffffffffffffffffff1673ffffffffffffffffffffffffffffffffffffffff1681526020019081526020016000206000016001806002016000886020015173ffffffffffffffffffffffffffffffffffffffff1673ffffffffffffffffffffffffffffffffffffffff16815260200190815260200160002060000180549050038154811061445c57fe5b9060005260206000200160009054906101000a900473ffffffffffffffffffffffffffffffffffffffff1660016002016000876020015173ffffffffffffffffffffffffffffffffffffffff1673ffffffffffffffffffffffffffffffffffffffff1681526020019081526020016000206000018660400151815481106144df57fe5b9060005260206000200160006101000a81548173ffffffffffffffffffffffffffffffffffffffff021916908373ffffffffffffffffffffffffffffffffffffffff16021790555060016002016000866020015173ffffffffffffffffffffffffffffffffffffffff1673ffffffffffffffffffffffffffffffffffffffff16815260200190815260200160002060000180548061457957fe5b6001900381819060005260206000200160006101000a81549073ffffffffffffffffffffffffffffffffffffffff021916905590555050505050505050565b6145c0613154565b614632576040517f08c379a00000000000000000000000000000000000000000000000000000000081526004018080602001828103825260208152602001807f4f776e61626c653a2063616c6c6572206973206e6f7420746865206f776e657281525060200191505060405180910390fd5b600160040180549050816000811015801561464c57508181105b6146be576040517f08c379a00000000000000000000000000000000000000000000000000000000081526004018080602001828103825260148152602001807f496e76616c6964204172726179204c656e67746800000000000000000000000081525060200191505060405180910390fd5b600160040183815481106146ce57fe5b906000526020600020906004020160008082016000905560018201600090556002820160006101000a81549060ff02191690555050505050565b614710613154565b614782576040517f08c379a00000000000000000000000000000000000000000000000000000000081526004018080602001828103825260208152602001807f4f776e61626c653a2063616c6c6572206973206e6f7420746865206f776e657281525060200191505060405180910390fd5b600760009054906101000a900473ffffffffffffffffffffffffffffffffffffffff1673ffffffffffffffffffffffffffffffffffffffff166323b872dd3330846040518463ffffffff1660e01b8152600401808473ffffffffffffffffffffffffffffffffffffffff1673ffffffffffffffffffffffffffffffffffffffff1681526020018373ffffffffffffffffffffffffffffffffffffffff1673ffffffffffffffffffffffffffffffffffffffff1681526020018281526020019350505050602060405180830381600087803b15801561485f57600080fd5b505af1158015614873573d6000803e3d6000fd5b505050506040513d602081101561488957600080fd5b810190808051906020019092919050505061490c576040517f08c379a00000000000000000000000000000000000000000000000000000000081526004018080602001828103825260148152602001807f546f6b656e205472616e73666572204572726f7200000000000000000000000081525060200191505060405180910390fd5b614922308260016152b09092919063ffffffff16565b50565b60008073ffffffffffffffffffffffffffffffffffffffff166001800160003373ffffffffffffffffffffffffffffffffffffffff1673ffffffffffffffffffffffffffffffffffffffff16815260200190815260200160002060009054906101000a900473ffffffffffffffffffffffffffffffffffffffff1673ffffffffffffffffffffffffffffffffffffffff161415614a2a576040517f08c379a00000000000000000000000000000000000000000000000000000000081526004018080602001828103825260158152602001807f63616c6c6572206973206e6f742056696c6c616765000000000000000000000081525060200191505060405180910390fd5b60008211614aa0576040517f08c379a000000000000000000000000000000000000000000000000000000000815260040180806020018281038252601f8152602001807f56616c7565206d7573742062652067726561746572207468616e207a65726f0081525060200191505060405180910390fd5b614ab6308360016151529092919063ffffffff16565b614acc838360016152b09092919063ffffffff16565b6001905092915050565b813373ffffffffffffffffffffffffffffffffffffffff166001800160008373ffffffffffffffffffffffffffffffffffffffff1673ffffffffffffffffffffffffffffffffffffffff16815260200190815260200160002060009054906101000a900473ffffffffffffffffffffffffffffffffffffffff1673ffffffffffffffffffffffffffffffffffffffff1614614bd9576040517f08c379a00000000000000000000000000000000000000000000000000000000081526004018080602001828103825260198152602001807f55736572206973206e6f742056696c6c616765206f776e65720000000000000081525060200191505060405180910390fd5b614be360016153f9565b8260008110158015614bf55750815181105b614c67576040517f08c379a00000000000000000000000000000000000000000000000000000000081526004018080602001828103825260138152602001807f496e76616c696420417272617920496e6465780000000000000000000000000081525060200191505060405180910390fd5b614c8d614c7460016153f9565b8581518110614c7f57fe5b602002602001015186615354565b600a60009054906101000a900473ffffffffffffffffffffffffffffffffffffffff1673ffffffffffffffffffffffffffffffffffffffff166374e9c939866040518263ffffffff1660e01b8152600401808273ffffffffffffffffffffffffffffffffffffffff1673ffffffffffffffffffffffffffffffffffffffff168152602001915050602060405180830381600087803b158015614d2e57600080fd5b505af1158015614d42573d6000803e3d6000fd5b505050506040513d6020811015614d5857600080fd5b81019080805190602001909291905050505060006001800160008773ffffffffffffffffffffffffffffffffffffffff1673ffffffffffffffffffffffffffffffffffffffff16815260200190815260200160002060006101000a81548173ffffffffffffffffffffffffffffffffffffffff021916908373ffffffffffffffffffffffffffffffffffffffff160217905550614df560016153f9565b6001614e0160016153f9565b510381518110614e0d57fe5b6020026020010151600160020160003373ffffffffffffffffffffffffffffffffffffffff1673ffffffffffffffffffffffffffffffffffffffff1681526020019081526020016000206000018581548110614e6557fe5b9060005260206000200160006101000a81548173ffffffffffffffffffffffffffffffffffffffff021916908373ffffffffffffffffffffffffffffffffffffffff160217905550600160020160003373ffffffffffffffffffffffffffffffffffffffff1673ffffffffffffffffffffffffffffffffffffffff168152602001908152602001600020600001805480614efb57fe5b6001900381819060005260206000200160006101000a81549073ffffffffffffffffffffffffffffffffffffffff021916905590555050505050565b6001600501805490508860008110158015614f5157508181105b614fc3576040517f08c379a00000000000000000000000000000000000000000000000000000000081526004018080602001828103825260148152602001807f496e76616c6964204172726179204c656e67746800000000000000000000000081525060200191505060405180910390fd5b614fcb613154565b61503d576040517f08c379a00000000000000000000000000000000000000000000000000000000081526004018080602001828103825260208152602001807f4f776e61626c653a2063616c6c6572206973206e6f7420746865206f776e657281525060200191505060405180910390fd5b6150456158d5565b8981600001818152505088816020018181525050878160400181815250508681606001818152505085816080018181525050848160a0018181525050838160c00181815250508060016005018c8154811061509c57fe5b90600052602060002090600a0201600301600082015181600001556020820151816001015560408201518160020155606082015181600301556080820151816004015560a0820151816005015560c082015181600601559050505050505050505050505050565b6000600160020160008373ffffffffffffffffffffffffffffffffffffffff1673ffffffffffffffffffffffffffffffffffffffff168152602001908152602001600020600101549050919050565b808360020160008473ffffffffffffffffffffffffffffffffffffffff1673ffffffffffffffffffffffffffffffffffffffff16815260200190815260200160002060010154101561520c576040517f08c379a00000000000000000000000000000000000000000000000000000000081526004018080602001828103825260118152602001807f696e73756666696369656e742067656d7300000000000000000000000000000081525060200191505060405180910390fd5b615263818460020160008573ffffffffffffffffffffffffffffffffffffffff1673ffffffffffffffffffffffffffffffffffffffff1681526020019081526020016000206001015461577690919063ffffffff16565b8360020160008473ffffffffffffffffffffffffffffffffffffffff1673ffffffffffffffffffffffffffffffffffffffff16815260200190815260200160002060010181905550505050565b615307818460020160008573ffffffffffffffffffffffffffffffffffffffff1673ffffffffffffffffffffffffffffffffffffffff1681526020019081526020016000206001015461579090919063ffffffff16565b8360020160008473ffffffffffffffffffffffffffffffffffffffff1673ffffffffffffffffffffffffffffffffffffffff16815260200190815260200160002060010181905550505050565b8073ffffffffffffffffffffffffffffffffffffffff168273ffffffffffffffffffffffffffffffffffffffff16146153f5576040517f08c379a00000000000000000000000000000000000000000000000000000000081526004018080602001828103825260118152602001807f41646472657373206e6f7420657175616c00000000000000000000000000000081525060200191505060405180910390fd5b5050565b60608160020160003373ffffffffffffffffffffffffffffffffffffffff1673ffffffffffffffffffffffffffffffffffffffff1681526020019081526020016000206000018054806020026020016040519081016040528092919081815260200182805480156154bf57602002820191906000526020600020905b8160009054906101000a900473ffffffffffffffffffffffffffffffffffffffff1673ffffffffffffffffffffffffffffffffffffffff1681526020019060010190808311615475575b50505050509050919050565b6000808314156154de57600090506154ff565b60008284029050828482816154ef57fe5b04146154fa57600080fd5b809150505b92915050565b338260010160008373ffffffffffffffffffffffffffffffffffffffff1673ffffffffffffffffffffffffffffffffffffffff16815260200190815260200160002060006101000a81548173ffffffffffffffffffffffffffffffffffffffff021916908373ffffffffffffffffffffffffffffffffffffffff1602179055508160020160003373ffffffffffffffffffffffffffffffffffffffff1673ffffffffffffffffffffffffffffffffffffffff1681526020019081526020016000206000018190806001815401808255809150509060018203906000526020600020016000909192909190916101000a81548173ffffffffffffffffffffffffffffffffffffffff021916908373ffffffffffffffffffffffffffffffffffffffff160217905550505050565b8073ffffffffffffffffffffffffffffffffffffffff168273ffffffffffffffffffffffffffffffffffffffff1614156156d3576040517f08c379a00000000000000000000000000000000000000000000000000000000081526004018080602001828103825260108152602001807f4164647265737320697320657175616c0000000000000000000000000000000081525060200191505060405180910390fd5b5050565b80821461574c576040517f08c379a000000000000000000000000000000000000000000000000000000000815260040180806020018281038252600f8152602001807f56616c7565206e6f7420657175616c000000000000000000000000000000000081525060200191505060405180910390fd5b5050565b600080821161575e57600080fd5b600082848161576957fe5b0490508091505092915050565b60008282111561578557600080fd5b818303905092915050565b6000808284019050838110156157a557600080fd5b8091505092915050565b60405180610140016040528060008019168152602001600080191681526020016000151581526020016157e0615912565b81525090565b6040518060c00160405280600073ffffffffffffffffffffffffffffffffffffffff168152602001600073ffffffffffffffffffffffffffffffffffffffff16815260200160008152602001600073ffffffffffffffffffffffffffffffffffffffff168152602001600081526020016000151581525090565b6040518061012001604052806000815260200160008152602001600081526020016000815260200160008152602001600081526020016000815260200160008152602001600081525090565b604051806060016040528060008019168152602001600080191681526020016000151581525090565b6040518060e00160405280600081526020016000815260200160008152602001600081526020016000815260200160008152602001600081525090565b6040518060e0016040528060008152602001600081526020016000815260200160008152602001600081526020016000815260200160008152509056fea165627a7a7230582051b226a51709ba85d9032e4644ef5c994c801bf433d3dbedc54a1fcfa28a30ab0029",
  "source": "pragma solidity ^0.5.0;\r\nimport \"./Ownable.sol\";\r\nimport \"./IERC20.sol\";\r\nimport \"./CC-modifiers.sol\";\r\nimport \"./ICClink.sol\";\r\n\r\ncontract CityClash is Ownable , CCmodifiers{\r\n    address public CityToken;\r\n    uint256 public TownBasicPrice;\r\n    uint256 public SellCommission;\r\n    address private GameLink;\r\n\r\n    constructor( address _GameLink) public{\r\n            GameLink = _GameLink;\r\n    }\r\n    /**\r\n    * This function is to create of ERC20 token (Gems in Game)\r\n    * only owner Can execute function.\r\n    * @param initialSupply total supply of token\r\n    * @param tokenName Erc20 token Name\r\n    * @param decimalUnits Amount of decimals for display purposes\r\n    * @param tokenSymbol  Set the symbol for display purposes\r\n    */\r\n    function CreateToken(uint256 initialSupply, string memory tokenName, uint8 decimalUnits,\r\n        string memory tokenSymbol) public onlyOwner{\r\n        CityToken = ICClink(GameLink).createToken(initialSupply,tokenName,decimalUnits,tokenSymbol,msg.sender);\r\n    }\r\n\r\n    /**\r\n    * This function handles creation of new village\r\n    * Requires Gems to create new village.\r\n    * Required Gems = (Number of Villages hold by user) * [(Town Basic Price) ** (Number of Villages hold by user)]\r\n    */\r\n    function CreateVillage() public{\r\n        uint256 NumberOfTown = Game.getPlayerTowns().length;\r\n        uint256 GemsRequired = NumberOfTown.mul(TownBasicPrice ** NumberOfTown);\r\n        Game.subPlayerGems(msg.sender,GemsRequired);\r\n        Game.addPlayerGems(address(this),GemsRequired);\r\n        address NewTown = ICClink(GameLink).createVillage();\r\n        Game.Villages.push(NewTown);\r\n        Game.addPlayerVillage(NewTown);\r\n    }\r\n    /**\r\n    * This function handles creation of new village\r\n    * Requires Gems to create new village.\r\n    * Required Gems = (Number of Villages hold by user) * [(Town Basic Price) ** (Number of Villages hold by user)]\r\n    * @param _village address of village to destroy\r\n    * @param _position position of village to destroy\r\n    */\r\n    function DestroyUserVillage(address _village,uint256 _position) public isVillageOwner(_village)\r\n    isArrayIndex(Game.getPlayerTowns(),_position) {\r\n        //check provided position and index corresponding to village\r\n        isSameAddress(Game.getPlayerTowns()[_position],_village);\r\n        ICClink(GameLink).destroyVillage(_village);\r\n        Game.VillageOwner[_village] = address(0);\r\n        Game.Players[msg.sender].Towns[_position] = Game.getPlayerTowns()[Game.getPlayerTowns().length - 1];\r\n        Game.Players[msg.sender].Towns.pop();\r\n    }\r\n    /**\r\n    * This function used to sell village\r\n    * @param _village address of village to sell\r\n    * @param _amount sell price\r\n    * @param _position Village position on User Town list\r\n    */\r\n    function SellUserVillage(address _village, uint256 _amount, uint256 _position) public isVillageOwner(_village)\r\n    isArrayIndex(Game.getPlayerTowns(),_position){\r\n        require(_amount > 0, \"must be greater than zero\");\r\n        //check provided position and index corresponding to village\r\n        isSameAddress(Game.getPlayerTowns()[_position],_village);\r\n        CClibrary.MarketOrders memory Order;\r\n        Order.SellVillage = _village;\r\n        Order.Seller = msg.sender;\r\n        Order.SellPrice = _amount;\r\n        Order.TownPosition = _position;\r\n        Game.SellOrders.push(Order);\r\n        Game.VillageOwner[_village] = address(this);\r\n    }\r\n    /**\r\n    * This function used to cancel sell village order\r\n    * @param _position Array Index of Sell Orders list\r\n    */\r\n    function CancelSellOrder(uint256 _position) public isArrayLength(Game.SellOrders.length,_position){\r\n        CClibrary.MarketOrders memory village = Game.SellOrders[_position];\r\n        //check village belongs to contract address\r\n        // if village not belongs to contract = already filled or cancelled order\r\n        isSameAddress(Game.VillageOwner[village.SellVillage],address(this));\r\n        //check Order is made by this user\r\n        isSameAddress(village.Seller, msg.sender);\r\n        Game.SellOrders[_position].IsFilled = true;\r\n        Game.VillageOwner[village.SellVillage] = msg.sender;\r\n    }\r\n    /**\r\n    * This function used to buy another user village\r\n    * @param _position Array Index of Sell Orders list\r\n    */\r\n    function BuyUserVillage(uint256 _position) public payable isArrayLength(Game.SellOrders.length,_position)\r\n    {\r\n        CClibrary.MarketOrders memory village = Game.SellOrders[_position];\r\n        isSameAddress(Game.VillageOwner[village.SellVillage],address(this));\r\n        //check Order is not made by User\r\n        isNotSameAddress(village.Seller,msg.sender);\r\n        isSameValue(msg.value,village.SellPrice);\r\n        uint256 NumberOfTown = Game.getPlayerTowns().length;\r\n        uint256 GemsRequired = NumberOfTown.mul(TownBasicPrice ** NumberOfTown).div(2);\r\n        Game.subPlayerGems(msg.sender,GemsRequired);\r\n        uint256 GemtoSeller = GemsRequired.mul(SellCommission).div(100);\r\n        uint256 GemtoContract = GemsRequired.sub(GemtoSeller);\r\n        Game.addPlayerGems(village.Seller,GemtoSeller);\r\n        Game.addPlayerGems(address(this),GemtoContract);\r\n        village.Seller.transfer(msg.value);\r\n        Game.SellOrders[_position].Buyer = msg.sender;\r\n        Game.SellOrders[_position].IsFilled = true;\r\n        Game.addPlayerVillage(village.SellVillage);\r\n        Game.Players[village.Seller].Towns[village.TownPosition] = Game.Players[village.Seller].Towns[ Game.Players[village.Seller].Towns.length - 1 ];\r\n        Game.Players[village.Seller].Towns.pop();\r\n        //impliment gem reducton from user and give seller gem  , deduct commission from seller\r\n    }\r\n    /**\r\n    * This function handles deposits of Gems to the contract.\r\n    * If token transfer fails, transaction is reverted and remaining gas is refunded.\r\n    * @dev Note: Remember to call Token(address).approve(this, amount) or this contract will not be able to do the transfer on your behalf.\r\n    * @param _amount the amount of the token the user wishes to deposit\r\n    */\r\n    function depositGems(uint256 _amount) public {\r\n        require(IToken(CityToken).transferFrom(msg.sender, address(this), _amount),\"Token Transfer Error\");\r\n        Game.addPlayerGems(msg.sender,_amount);\r\n    }\r\n    /**\r\n    *This function handles withdrawals of Gems from the contract.\r\n    * If token transfer fails, transaction is reverted and remaining gas is refunded.\r\n    * @param _amount uint of the amount of the token the user wishes to withdraw\r\n    */\r\n    function withdrawGems(uint256 _amount) public HaveGem(_amount) {\r\n        Game.subPlayerGems(msg.sender,_amount);\r\n        require(IToken(CityToken).transfer(msg.sender, _amount),\"Token Transfer Error\");\r\n    }\r\n\r\n    /**\r\n    *This function handles changing of Town basic price in Gems.\r\n    * Only Owner  can execute this function.\r\n    * @param _value  Basic price of the town\r\n    */\r\n    function changeTownBasicPrice(uint256 _value) public onlyOwner{\r\n        require(_value >= 0, \"Value must be greater than zero\");\r\n        TownBasicPrice = _value;\r\n    }\r\n     /**\r\n    *This function handles changing of Town sell commission in Gems.\r\n    * Only Owner  can execute this function.\r\n    * @param _value  sell commision in percentage\r\n    */\r\n    function changeSellCommission(uint256 _value) public onlyOwner{\r\n        require(_value >= 0 && _value <= 100, \"Value must be b/w 0 to 100\");\r\n        SellCommission = _value;\r\n    }\r\n    /**\r\n    * function to deposite Gem on contract account balnace.\r\n    * Only Owner  can execute this function.\r\n    * @param _amount amount of the token\r\n    */\r\n    function depositGemOwner(uint256 _amount) public onlyOwner{\r\n        require(IToken(CityToken).transferFrom(msg.sender, address(this), _amount),\"Token Transfer Error\");\r\n        Game.addPlayerGems(address(this),_amount);\r\n    }\r\n    /**\r\n    * function to Add building Uint in Game.\r\n    * Only Owner  can execute this function.\r\n    * @dev Note: Upload image to Swarm to get Hash of the file\r\n    * @param _name name of the Building\r\n    * @param _hash 32 byte file hash from swarm\r\n    */\r\n    function AddBuilding(bytes32 _name, bytes32 _hash) public onlyOwner{\r\n        CClibrary.BuildingModel memory NewBuilding;\r\n        NewBuilding.name = _name;\r\n        NewBuilding.image = _hash;\r\n        NewBuilding.state = true;\r\n        Game.Buildings.push(NewBuilding);\r\n    }\r\n    /**\r\n    * function to delete building Uint in Game.\r\n    * Only Owner  can execute this function.\r\n    * @param _ID index of building to be deleted from array\r\n    */\r\n    function DeleteBuilding(uint256 _ID) public onlyOwner isArrayLength(Game.Buildings.length,_ID){\r\n        delete Game.Buildings[_ID];\r\n    }\r\n    /**\r\n    * function to Add Troop in Game.\r\n    * Only Owner  can execute this function.\r\n    * @dev Note: Upload image to Swarm to get Hash of the file\r\n    * @param _name name of the Troop\r\n    * @param _hash 32 byte file hash from swarm\r\n    */\r\n    function AddTroops(bytes32 _name, bytes32 _hash) public onlyOwner{\r\n        CClibrary.TroopsModel memory NewTroop;\r\n        NewTroop.name = _name;\r\n        NewTroop.image = _hash;\r\n        NewTroop.state = true;\r\n        Game.Troops.push(NewTroop);\r\n    }\r\n    /**\r\n    * function to delete troop in Game.\r\n    * Only Owner  can execute this function.\r\n    * @param _ID index of troop to be deleted from array\r\n    */\r\n    function DeleteTroops(uint256 _ID) public onlyOwner isArrayLength(Game.Troops.length,_ID){\r\n        delete Game.Troops[_ID];\r\n    }\r\n    /**\r\n    * function to Add/Change Building Upgarde details.\r\n    * Only Owner  can execute this function.\r\n    * @param _ID builing id (array index)\r\n    * @param _level Upgrade level\r\n    * @param _RequiredBuilding Required Building ID to Upgarde\r\n    * @param _RequiredLevel Required Building Level to Upgrade\r\n    * @param _RequiredGold  Required Gold to upgrade\r\n    * @param _RequiredElixr Required Elixr to upgrade\r\n    * @param _RequiredGem Required Gem to upgrade\r\n    * @param _GoldRate Change in gold production rate\r\n    * @param _ElixrRate Change in elixr production rate\r\n    * @param _GemReward amount of gem reward to user\r\n    * @param _Time Cool off time to next Upgrade\r\n    */\r\n    function ChangeBuildingUpgrade(uint256 _ID, uint256 _level, uint256 _RequiredBuilding,\r\n    uint256 _RequiredLevel, uint256 _RequiredGold, uint256 _RequiredElixr, uint256 _RequiredGem,\r\n    uint256 _GoldRate, uint256 _ElixrRate, uint256 _GemReward, uint256 _Time) public\r\n    isArrayLength(Game.Buildings.length,_ID) onlyOwner{\r\n        CClibrary.UpgradeModel memory NewUpgrade;\r\n        NewUpgrade.RequiredBuilding = _RequiredBuilding;\r\n        NewUpgrade.RequiredLevel = _RequiredLevel;\r\n        NewUpgrade.RequiredGold = _RequiredGold;\r\n        NewUpgrade.RequiredElixr = _RequiredElixr;\r\n        NewUpgrade.RequiredGem = _RequiredGem;\r\n        NewUpgrade.GoldRate = _GoldRate;\r\n        NewUpgrade.ElixrRate = _ElixrRate;\r\n        NewUpgrade.GemReward = _GemReward;\r\n        NewUpgrade.Time = _Time;\r\n        Game.Buildings[_ID].Upgrade[_level] = NewUpgrade;\r\n    }\r\n    /**\r\n    * function to Change Troop Training details.\r\n    * Only Owner  can execute this function.\r\n    * @param _ID troop id (array index)\r\n    * @param _Defence Change in Defence power\r\n    * @param _Attack Change in Attack Power\r\n    * @param _Steal Change in Steal power\r\n    * @param _RequiredGold  Required Gold to upgrade\r\n    * @param _RequiredElixr Required Elixr to upgrade\r\n    * @param _RequiredGem Required Gem to upgrade\r\n    * @param _Time Time Required to upgrade troop\r\n    */\r\n    function ChangeTroopTrain(uint256 _ID, uint256 _Defence, uint256 _Attack,\r\n    uint256 _Steal, uint256 _RequiredGold, uint256 _RequiredElixr, uint256 _RequiredGem, uint256 _Time) public\r\n    isArrayLength(Game.Troops.length,_ID) onlyOwner{\r\n        CClibrary.TrainModel memory NewTrain;\r\n        NewTrain.Defence = _Defence;\r\n        NewTrain.Attack = _Attack;\r\n        NewTrain.Steal = _Steal;\r\n        NewTrain.RequiredGold = _RequiredGold;\r\n        NewTrain.RequiredElixr = _RequiredElixr;\r\n        NewTrain.RequiredGem = _RequiredGem;\r\n        NewTrain.Time = _Time;\r\n        Game.Troops[_ID].Train = NewTrain;\r\n    }\r\n    /**\r\n    * function to substract gem from player account.\r\n    * Only a village can execute.\r\n    * @param _User player address\r\n    * @param _amount amount of gem to substract\r\n    */\r\n    function SubGemFromVillage(address _User, uint256 _amount) public isVillage returns(bool){\r\n        require(_amount > 0, \"Value must be greater than zero\");\r\n        Game.subPlayerGems(_User,_amount);\r\n        Game.addPlayerGems(address(this),_amount);\r\n        return true;\r\n    }\r\n     /**\r\n    * function to add gem to player account.\r\n    * Only a village can execute.\r\n    * @param _User player address\r\n    * @param _amount amount of gem to add\r\n    */\r\n    function AddGemFromVillage(address _User, uint256 _amount) public isVillage returns(bool){\r\n        require(_amount > 0, \"Value must be greater than zero\");\r\n        Game.subPlayerGems(address(this),_amount);\r\n        Game.addPlayerGems(_User,_amount);\r\n        return true;\r\n    }\r\n}",
  "sourcePath": "E:/KBA/ethereum/project/Docker/Truffle/contracts/CityClash.sol",
  "compiler": {
    "name": "solc",
    "version": "0.5.8+commit.23d335f2.Emscripten.clang"
  },
  "schemaVersion": "3.0.11",
  "updatedAt": "2019-09-12T13:26:17.256Z",
  "devdoc": {
    "methods": {
      "AddBuilding(bytes32,bytes32)": {
        "details": "Note: Upload image to Swarm to get Hash of the file\r",
        "params": {
          "_hash": "32 byte file hash from swarm\r",
          "_name": "name of the Building\r"
        }
      },
      "AddGemFromVillage(address,uint256)": {
        "params": {
          "_User": "player address\r",
          "_amount": "amount of gem to add\r"
        }
      },
      "AddTroops(bytes32,bytes32)": {
        "details": "Note: Upload image to Swarm to get Hash of the file\r",
        "params": {
          "_hash": "32 byte file hash from swarm\r",
          "_name": "name of the Troop\r"
        }
      },
      "BuyUserVillage(uint256)": {
        "params": {
          "_position": "Array Index of Sell Orders list\r"
        }
      },
      "CancelSellOrder(uint256)": {
        "params": {
          "_position": "Array Index of Sell Orders list\r"
        }
      },
      "ChangeBuildingUpgrade(uint256,uint256,uint256,uint256,uint256,uint256,uint256,uint256,uint256,uint256,uint256)": {
        "params": {
          "_ElixrRate": "Change in elixr production rate\r",
          "_GemReward": "amount of gem reward to user\r",
          "_GoldRate": "Change in gold production rate\r",
          "_ID": "builing id (array index)\r",
          "_RequiredBuilding": "Required Building ID to Upgarde\r",
          "_RequiredElixr": "Required Elixr to upgrade\r",
          "_RequiredGem": "Required Gem to upgrade\r",
          "_RequiredGold": "Required Gold to upgrade\r",
          "_RequiredLevel": "Required Building Level to Upgrade\r",
          "_Time": "Cool off time to next Upgrade\r",
          "_level": "Upgrade level\r"
        }
      },
      "ChangeTroopTrain(uint256,uint256,uint256,uint256,uint256,uint256,uint256,uint256)": {
        "params": {
          "_Attack": "Change in Attack Power\r",
          "_Defence": "Change in Defence power\r",
          "_ID": "troop id (array index)\r",
          "_RequiredElixr": "Required Elixr to upgrade\r",
          "_RequiredGem": "Required Gem to upgrade\r",
          "_RequiredGold": "Required Gold to upgrade\r",
          "_Steal": "Change in Steal power\r",
          "_Time": "Time Required to upgrade troop\r"
        }
      },
      "CreateToken(uint256,string,uint8,string)": {
        "params": {
          "decimalUnits": "Amount of decimals for display purposes\r",
          "initialSupply": "total supply of token\r",
          "tokenName": "Erc20 token Name\r",
          "tokenSymbol": "Set the symbol for display purposes\r"
        }
      },
      "DeleteBuilding(uint256)": {
        "params": {
          "_ID": "index of building to be deleted from array\r"
        }
      },
      "DeleteTroops(uint256)": {
        "params": {
          "_ID": "index of troop to be deleted from array\r"
        }
      },
      "DestroyUserVillage(address,uint256)": {
        "params": {
          "_position": "position of village to destroy\r",
          "_village": "address of village to destroy\r"
        }
      },
      "GetAvailableSellOrders()": {
        "return": "village address list\rseller address list\rthis village position in seller town list\rsell price list\r"
      },
      "GetBuildingUpgrades(uint256,uint256)": {
        "params": {
          "_ID": "Building ID\r",
          "_level": "Building level\r"
        },
        "return": "_RequiredBuilding Required Building ID to Upgarde\r_RequiredLevel Required Building Level to Upgrade\r_RequiredGold  Required Gold to upgrade\r_RequiredElixr Required Elixr to upgrade\r_RequiredGem Required Gem to upgrade\r_GoldRate Change in gold production rate\r_ElixrRate Change in elixr production rate\r_GemReward amount of gem reward to user\r_Time Cool off time to next Upgrade\r"
      },
      "GetBuildings()": {
        "return": "_id array of Builing IDs \r_name array of name of builings\r_image array of swarm hash of builings\r"
      },
      "GetFilledSellOrders()": {
        "return": "village address list\rseller address list\rbuyer address list\rsell price list\r"
      },
      "GetPlayerDetails(address)": {
        "params": {
          "_player": "Player Address\r"
        },
        "return": "_Towns Player TownList\r_GemsCount Player  Gem balance\r"
      },
      "GetPlayerGems(address)": {
        "params": {
          "_player": "Player Address\r"
        },
        "return": "_GemsCount Player  Gem balance\r"
      },
      "GetToopsDetails(uint256)": {
        "params": {
          "_ID": "troop ID\r"
        },
        "return": "_Defence Change in Defence power\r_Attack Change in Attack Power\r_Steal Change in Steal power\r_RequiredGold  Required Gold to upgrade\r_RequiredElixr Required Elixr to upgrade\r_RequiredGem Required Gem to upgrade\r_Time Time Required to upgrade troop\r"
      },
      "GetTroops()": {
        "return": "_id array of troop IDs\r_name array of name of troop\r_image array of swarm hash of troop\r"
      },
      "GetVillageOwner(address)": {
        "params": {
          "_village": "Village address\r"
        },
        "return": "Village owner address\r"
      },
      "GetVillages()": {
        "return": "Villages\r"
      },
      "SellUserVillage(address,uint256,uint256)": {
        "params": {
          "_amount": "sell price\r",
          "_position": "Village position on User Town list\r",
          "_village": "address of village to sell\r"
        }
      },
      "SubGemFromVillage(address,uint256)": {
        "params": {
          "_User": "player address\r",
          "_amount": "amount of gem to substract\r"
        }
      },
      "changeSellCommission(uint256)": {
        "params": {
          "_value": "sell commision in percentage\r"
        }
      },
      "changeTownBasicPrice(uint256)": {
        "params": {
          "_value": "Basic price of the town\r"
        }
      },
      "depositGemOwner(uint256)": {
        "params": {
          "_amount": "amount of the token\r"
        }
      },
      "depositGems(uint256)": {
        "details": "Note: Remember to call Token(address).approve(this, amount) or this contract will not be able to do the transfer on your behalf.\r",
        "params": {
          "_amount": "the amount of the token the user wishes to deposit\r"
        }
      },
      "isOwner()": {
        "details": "Returns true if the caller is the current owner.\r"
      },
      "owner()": {
        "details": "Returns the address of the current owner.\r"
      },
      "withdrawGems(uint256)": {
        "params": {
          "_amount": "uint of the amount of the token the user wishes to withdraw\r"
        }
      }
    }
  },
  "userdoc": {
    "methods": {
      "AddBuilding(bytes32,bytes32)": {
        "notice": "function to Add building Uint in Game.\r Only Owner  can execute this function.\r"
      },
      "AddGemFromVillage(address,uint256)": {
        "notice": "function to add gem to player account.\r Only a village can execute.\r"
      },
      "AddTroops(bytes32,bytes32)": {
        "notice": "function to Add Troop in Game.\r Only Owner  can execute this function.\r"
      },
      "BuyUserVillage(uint256)": {
        "notice": "This function used to buy another user village\r"
      },
      "CancelSellOrder(uint256)": {
        "notice": "This function used to cancel sell village order\r"
      },
      "ChangeBuildingUpgrade(uint256,uint256,uint256,uint256,uint256,uint256,uint256,uint256,uint256,uint256,uint256)": {
        "notice": "function to Add/Change Building Upgarde details.\r Only Owner  can execute this function.\r"
      },
      "ChangeTroopTrain(uint256,uint256,uint256,uint256,uint256,uint256,uint256,uint256)": {
        "notice": "function to Change Troop Training details.\r Only Owner  can execute this function.\r"
      },
      "CreateToken(uint256,string,uint8,string)": {
        "notice": "This function is to create of ERC20 token (Gems in Game)\r only owner Can execute function.\r"
      },
      "CreateVillage()": {
        "notice": "This function handles creation of new village\r Requires Gems to create new village.\r Required Gems = (Number of Villages hold by user) * [(Town Basic Price) ** (Number of Villages hold by user)]\r"
      },
      "DeleteBuilding(uint256)": {
        "notice": "function to delete building Uint in Game.\r Only Owner  can execute this function.\r"
      },
      "DeleteTroops(uint256)": {
        "notice": "function to delete troop in Game.\r Only Owner  can execute this function.\r"
      },
      "DestroyUserVillage(address,uint256)": {
        "notice": "This function handles creation of new village\r Requires Gems to create new village.\r Required Gems = (Number of Villages hold by user) * [(Town Basic Price) ** (Number of Villages hold by user)]\r"
      },
      "GetAvailableSellOrders()": {
        "notice": "function to Get Filled Sell Orders .\r"
      },
      "GetBuildingUpgrades(uint256,uint256)": {
        "notice": "function to Get Building Upgarede Detail .\r"
      },
      "GetBuildings()": {
        "notice": "function to Get All Builings\r"
      },
      "GetFilledSellOrders()": {
        "notice": "function to Get Filled Sell Orders .\r"
      },
      "GetPlayerDetails(address)": {
        "notice": "function to Get Player Details .\r"
      },
      "GetPlayerGems(address)": {
        "notice": "function to Get Player Gem count\r"
      },
      "GetToopsDetails(uint256)": {
        "notice": "function to Get Troops training Detail .\r"
      },
      "GetTroops()": {
        "notice": "function to Get All troops\r"
      },
      "GetVillageOwner(address)": {
        "notice": "function to Get Village owner .\r"
      },
      "GetVillages()": {
        "notice": "function to Get All Villages Excluding Caller Village.\r"
      },
      "SellUserVillage(address,uint256,uint256)": {
        "notice": "This function used to sell village\r"
      },
      "SubGemFromVillage(address,uint256)": {
        "notice": "function to substract gem from player account.\r Only a village can execute.\r"
      },
      "changeSellCommission(uint256)": {
        "notice": "his function handles changing of Town sell commission in Gems.\r Only Owner  can execute this function.\r"
      },
      "changeTownBasicPrice(uint256)": {
        "notice": "his function handles changing of Town basic price in Gems.\r Only Owner  can execute this function.\r"
      },
      "depositGemOwner(uint256)": {
        "notice": "function to deposite Gem on contract account balnace.\r Only Owner  can execute this function.\r"
      },
      "depositGems(uint256)": {
        "notice": "This function handles deposits of Gems to the contract.\r If token transfer fails, transaction is reverted and remaining gas is refunded.\r"
      },
      "withdrawGems(uint256)": {
        "notice": "his function handles withdrawals of Gems from the contract.\r If token transfer fails, transaction is reverted and remaining gas is refunded.\r"
      }
    }
  }
}