{
  "contractName": "Village",
  "abi": [
    {
      "constant": true,
      "inputs": [],
      "name": "UserDetails",
      "outputs": [
        {
          "name": "Gold",
          "type": "uint256"
        },
        {
          "name": "Elixr",
          "type": "uint256"
        },
        {
          "name": "GoldRate",
          "type": "uint256"
        },
        {
          "name": "ElixrRate",
          "type": "uint256"
        },
        {
          "name": "Attack",
          "type": "uint256"
        },
        {
          "name": "Defence",
          "type": "uint256"
        },
        {
          "name": "Steal",
          "type": "uint256"
        },
        {
          "name": "TimeStamp",
          "type": "uint256"
        }
      ],
      "payable": false,
      "stateMutability": "view",
      "type": "function"
    },
    {
      "constant": true,
      "inputs": [
        {
          "name": "",
          "type": "uint256"
        }
      ],
      "name": "TroopsQueue",
      "outputs": [
        {
          "name": "ID",
          "type": "uint256"
        },
        {
          "name": "Count",
          "type": "uint256"
        },
        {
          "name": "Time",
          "type": "uint256"
        },
        {
          "name": "Attack",
          "type": "uint256"
        },
        {
          "name": "Defence",
          "type": "uint256"
        },
        {
          "name": "Steal",
          "type": "uint256"
        }
      ],
      "payable": false,
      "stateMutability": "view",
      "type": "function"
    },
    {
      "constant": true,
      "inputs": [],
      "name": "owner",
      "outputs": [
        {
          "name": "",
          "type": "address"
        }
      ],
      "payable": false,
      "stateMutability": "view",
      "type": "function"
    },
    {
      "constant": true,
      "inputs": [],
      "name": "isOwner",
      "outputs": [
        {
          "name": "",
          "type": "bool"
        }
      ],
      "payable": false,
      "stateMutability": "view",
      "type": "function"
    },
    {
      "constant": true,
      "inputs": [],
      "name": "TotalQueue",
      "outputs": [
        {
          "name": "",
          "type": "uint256"
        }
      ],
      "payable": false,
      "stateMutability": "view",
      "type": "function"
    },
    {
      "constant": true,
      "inputs": [],
      "name": "CompletedQueue",
      "outputs": [
        {
          "name": "",
          "type": "uint256"
        }
      ],
      "payable": false,
      "stateMutability": "view",
      "type": "function"
    },
    {
      "constant": true,
      "inputs": [],
      "name": "completionTime",
      "outputs": [
        {
          "name": "",
          "type": "uint256"
        }
      ],
      "payable": false,
      "stateMutability": "view",
      "type": "function"
    },
    {
      "inputs": [
        {
          "name": "_CCgame",
          "type": "address"
        }
      ],
      "payable": false,
      "stateMutability": "nonpayable",
      "type": "constructor"
    },
    {
      "anonymous": false,
      "inputs": [
        {
          "indexed": false,
          "name": "attacker",
          "type": "address"
        },
        {
          "indexed": false,
          "name": "defender",
          "type": "address"
        },
        {
          "indexed": false,
          "name": "Gold",
          "type": "uint256"
        },
        {
          "indexed": false,
          "name": "Elixr",
          "type": "uint256"
        },
        {
          "indexed": false,
          "name": "success",
          "type": "bool"
        }
      ],
      "name": "Battle",
      "type": "event"
    },
    {
      "constant": false,
      "inputs": [
        {
          "name": "_ID",
          "type": "uint256"
        },
        {
          "name": "_level",
          "type": "uint256"
        }
      ],
      "name": "UpgradeBuilding",
      "outputs": [],
      "payable": false,
      "stateMutability": "nonpayable",
      "type": "function"
    },
    {
      "constant": false,
      "inputs": [
        {
          "name": "_ID",
          "type": "uint256"
        },
        {
          "name": "_count",
          "type": "uint256"
        }
      ],
      "name": "TrainTroops",
      "outputs": [],
      "payable": false,
      "stateMutability": "nonpayable",
      "type": "function"
    },
    {
      "constant": true,
      "inputs": [
        {
          "name": "_id",
          "type": "uint256"
        }
      ],
      "name": "GetUpgradeDetails",
      "outputs": [
        {
          "name": "_Level",
          "type": "uint256"
        },
        {
          "name": "_CoolOff",
          "type": "uint256"
        }
      ],
      "payable": false,
      "stateMutability": "view",
      "type": "function"
    },
    {
      "constant": true,
      "inputs": [
        {
          "name": "_id",
          "type": "uint256"
        }
      ],
      "name": "GetTrainDetails",
      "outputs": [
        {
          "name": "_Count",
          "type": "uint256"
        }
      ],
      "payable": false,
      "stateMutability": "view",
      "type": "function"
    },
    {
      "constant": false,
      "inputs": [
        {
          "name": "_Enemy",
          "type": "address"
        }
      ],
      "name": "AttackEnemy",
      "outputs": [],
      "payable": false,
      "stateMutability": "nonpayable",
      "type": "function"
    },
    {
      "constant": false,
      "inputs": [
        {
          "name": "_Attacker",
          "type": "address"
        },
        {
          "name": "_Attack",
          "type": "uint256"
        },
        {
          "name": "_Steal",
          "type": "uint256"
        }
      ],
      "name": "DefenceAttack",
      "outputs": [
        {
          "name": "_GoldSteal",
          "type": "uint256"
        },
        {
          "name": "_ElixrSteal",
          "type": "uint256"
        }
      ],
      "payable": false,
      "stateMutability": "nonpayable",
      "type": "function"
    },
    {
      "constant": false,
      "inputs": [],
      "name": "DestroyVillage",
      "outputs": [],
      "payable": false,
      "stateMutability": "nonpayable",
      "type": "function"
    }
  ],
  "bytecode": "0x608060405234801561001057600080fd5b5060405160208061227b8339810180604052602081101561003057600080fd5b8101908080519060200190929190505050336000806101000a81548173ffffffffffffffffffffffffffffffffffffffff021916908373ffffffffffffffffffffffffffffffffffffffff16021790555080600f60006101000a81548173ffffffffffffffffffffffffffffffffffffffff021916908373ffffffffffffffffffffffffffffffffffffffff1602179055506001806002018190555060018060030181905550426001600701819055505061218b806100f06000396000f3fe608060405234801561001057600080fd5b50600436106100ea5760003560e01c80638f32d59b1161008c578063cf87e97011610066578063cf87e9701461035c578063e2a0356d146103a0578063fd84204e146103e9578063ff25adfd14610407576100ea565b80638f32d59b146102a95780638fbb2ef2146102cb578063a9422ae8146102e9576100ea565b80631f86ac8a116100c85780631f86ac8a146101db57806330ca92bc146102135780635b7563781461021d5780638da5cb5b1461025f576100ea565b806311e666b9146100ef57806319c8710c1461013e5780631ba6d17714610176575b600080fd5b6100f7610425565b604051808981526020018881526020018781526020018681526020018581526020018481526020018381526020018281526020019850505050505050505060405180910390f35b6101746004803603604081101561015457600080fd5b81019080803590602001909291908035906020019092919050505061045b565b005b6101a26004803603602081101561018c57600080fd5b8101908080359060200190929190505050610d69565b60405180878152602001868152602001858152602001848152602001838152602001828152602001965050505050505060405180910390f35b610211600480360360408110156101f157600080fd5b810190808035906020019092919080359060200190929190505050610da5565b005b61021b61144b565b005b6102496004803603602081101561023357600080fd5b8101908080359060200190929190505050611500565b6040518082815260200191505060405180910390f35b610267611523565b604051808273ffffffffffffffffffffffffffffffffffffffff1673ffffffffffffffffffffffffffffffffffffffff16815260200191505060405180910390f35b6102b161154c565b604051808215151515815260200191505060405180910390f35b6102d36115a3565b6040518082815260200191505060405180910390f35b61033f600480360360608110156102ff57600080fd5b81019080803573ffffffffffffffffffffffffffffffffffffffff16906020019092919080359060200190929190803590602001909291905050506115a9565b604051808381526020018281526020019250505060405180910390f35b61039e6004803603602081101561037257600080fd5b81019080803573ffffffffffffffffffffffffffffffffffffffff1690602001909291905050506118a7565b005b6103cc600480360360208110156103b657600080fd5b8101908080359060200190929190505050611e52565b604051808381526020018281526020019250505060405180910390f35b6103f1611e92565b6040518082815260200191505060405180910390f35b61040f611e98565b6040518082815260200191505060405180910390f35b60018060000154908060010154908060020154908060030154908060040154908060050154908060060154908060070154905088565b3373ffffffffffffffffffffffffffffffffffffffff16600f60009054906101000a900473ffffffffffffffffffffffffffffffffffffffff1673ffffffffffffffffffffffffffffffffffffffff1663cf192ea2306040518263ffffffff1660e01b8152600401808273ffffffffffffffffffffffffffffffffffffffff1673ffffffffffffffffffffffffffffffffffffffff16815260200191505060206040518083038186803b15801561051157600080fd5b505afa158015610525573d6000803e3d6000fd5b505050506040513d602081101561053b57600080fd5b810190808051906020019092919050505073ffffffffffffffffffffffffffffffffffffffff16146105d5576040517f08c379a00000000000000000000000000000000000000000000000000000000081526004018080602001828103825260198152602001807f55736572206973206e6f742056696c6c616765206f776e65720000000000000081525060200191505060405180910390fd5b6105e9600182611e9e90919063ffffffff16565b600160080160008481526020019081526020016000206000015414610676576040517f08c379a000000000000000000000000000000000000000000000000000000000815260040180806020018281038252600f8152602001807f496e76616c69642055706772616465000000000000000000000000000000000081525060200191505060405180910390fd5b6000806000806000806000806000600f60009054906101000a900473ffffffffffffffffffffffffffffffffffffffff1673ffffffffffffffffffffffffffffffffffffffff16638410b8c68c8c6040518363ffffffff1660e01b815260040180838152602001828152602001925050506101206040518083038186803b15801561070057600080fd5b505afa158015610714573d6000803e3d6000fd5b505050506040513d61012081101561072b57600080fd5b8101908080519060200190929190805190602001909291908051906020019092919080519060200190929190805190602001909291908051906020019092919080519060200190929190805190602001909291908051906020019092919050505098509850985098509850985098509850985060008111610814576040517f08c379a00000000000000000000000000000000000000000000000000000000081526004018080602001828103825260158152602001807f6e6f20757067726164657320617661696c61626c65000000000000000000000081525060200191505060405180910390fd5b42600160080160008d815260200190815260200160002060010154106108a2576040517f08c379a00000000000000000000000000000000000000000000000000000000081526004018080602001828103825260148152602001807f557067726164696e6720696e2050726f6365737300000000000000000000000081525060200191505060405180910390fd5b87600160080160008b8152602001908152602001600020600001541015610931576040517f08c379a000000000000000000000000000000000000000000000000000000000815260040180806020018281038252601c8152602001807f4275696c64696e6720526571756972656d656e74206e6f74206d65740000000081525060200191505060405180910390fd5b610939611eb8565b8660016000015410158015610952575085600180015410155b6109c4576040517f08c379a000000000000000000000000000000000000000000000000000000000815260040180806020018281038252601d8152602001807f5265736f757263657320526571756972656d656e74206e6f74206d657400000081525060200191505060405180910390fd5b6109dc87600160000154611e9e90919063ffffffff16565b6001600001819055506109fc866001800154611e9e90919063ffffffff16565b60018001819055506000851115610b6457600f60009054906101000a900473ffffffffffffffffffffffffffffffffffffffff1673ffffffffffffffffffffffffffffffffffffffff1663934c0ae933876040518363ffffffff1660e01b8152600401808373ffffffffffffffffffffffffffffffffffffffff1673ffffffffffffffffffffffffffffffffffffffff16815260200182815260200192505050602060405180830381600087803b158015610ab657600080fd5b505af1158015610aca573d6000803e3d6000fd5b505050506040513d6020811015610ae057600080fd5b8101908080519060200190929190505050610b63576040517f08c379a000000000000000000000000000000000000000000000000000000000815260040180806020018281038252600e8152602001807f4e6f2047656d2042616c616e636500000000000000000000000000000000000081525060200191505060405180910390fd5b5b610b6c611f4b565b610b84846001600201546120d090919063ffffffff16565b600160020181905550610ba5836001600301546120d090919063ffffffff16565b60016003018190555089600160080160008d815260200190815260200160002060000181905550610bdf42826120d090919063ffffffff16565b600160080160008d8152602001908152602001600020600101819055506000821115610d5c57600f60009054906101000a900473ffffffffffffffffffffffffffffffffffffffff1673ffffffffffffffffffffffffffffffffffffffff1663ec9926a033846040518363ffffffff1660e01b8152600401808373ffffffffffffffffffffffffffffffffffffffff1673ffffffffffffffffffffffffffffffffffffffff16815260200182815260200192505050602060405180830381600087803b158015610cae57600080fd5b505af1158015610cc2573d6000803e3d6000fd5b505050506040513d6020811015610cd857600080fd5b8101908080519060200190929190505050610d5b576040517f08c379a00000000000000000000000000000000000000000000000000000000081526004018080602001828103825260148152602001807f536f6d657468696e672057656e742057726f6e6700000000000000000000000081525060200191505060405180910390fd5b5b5050505050505050505050565b600b6020528060005260406000206000915090508060000154908060010154908060020154908060030154908060040154908060050154905086565b3373ffffffffffffffffffffffffffffffffffffffff16600f60009054906101000a900473ffffffffffffffffffffffffffffffffffffffff1673ffffffffffffffffffffffffffffffffffffffff1663cf192ea2306040518263ffffffff1660e01b8152600401808273ffffffffffffffffffffffffffffffffffffffff1673ffffffffffffffffffffffffffffffffffffffff16815260200191505060206040518083038186803b158015610e5b57600080fd5b505afa158015610e6f573d6000803e3d6000fd5b505050506040513d6020811015610e8557600080fd5b810190808051906020019092919050505073ffffffffffffffffffffffffffffffffffffffff1614610f1f576040517f08c379a00000000000000000000000000000000000000000000000000000000081526004018080602001828103825260198152602001807f55736572206973206e6f742056696c6c616765206f776e65720000000000000081525060200191505060405180910390fd5b6000806000806000806000600f60009054906101000a900473ffffffffffffffffffffffffffffffffffffffff1673ffffffffffffffffffffffffffffffffffffffff16630876a5c38a6040518263ffffffff1660e01b81526004018082815260200191505060e06040518083038186803b158015610f9d57600080fd5b505afa158015610fb1573d6000803e3d6000fd5b505050506040513d60e0811015610fc757600080fd5b8101908080519060200190929190805190602001909291908051906020019092919080519060200190929190805190602001909291908051906020019092919080519060200190929190505050965096509650965096509650965060008111611098576040517f08c379a00000000000000000000000000000000000000000000000000000000081526004018080602001828103825260128152602001807f6e6f2074726f6f7020617661696c61626c65000000000000000000000000000081525060200191505060405180910390fd5b6110a0611eb8565b6110b388856120ef90919063ffffffff16565b600160000154101580156110dd57506110d588846120ef90919063ffffffff16565b600180015410155b61114f576040517f08c379a000000000000000000000000000000000000000000000000000000000815260040180806020018281038252601d8152602001807f5265736f757263657320526571756972656d656e74206e6f74206d657400000081525060200191505060405180910390fd5b61117961116589866120ef90919063ffffffff16565b600160000154611e9e90919063ffffffff16565b6001600001819055506111ab61119889856120ef90919063ffffffff16565b6001800154611e9e90919063ffffffff16565b6001800181905550600082111561131357600f60009054906101000a900473ffffffffffffffffffffffffffffffffffffffff1673ffffffffffffffffffffffffffffffffffffffff1663934c0ae933846040518363ffffffff1660e01b8152600401808373ffffffffffffffffffffffffffffffffffffffff1673ffffffffffffffffffffffffffffffffffffffff16815260200182815260200192505050602060405180830381600087803b15801561126557600080fd5b505af1158015611279573d6000803e3d6000fd5b505050506040513d602081101561128f57600080fd5b8101908080519060200190929190505050611312576040517f08c379a000000000000000000000000000000000000000000000000000000000815260040180806020018281038252600e8152602001807f4e6f2047656d2042616c616e636500000000000000000000000000000000000081525060200191505060405180910390fd5b5b61131b611f4b565b42600e54101561132d5742600e819055505b611335612129565b898160000181815250508881602001818152505061137061135f838b6120ef90919063ffffffff16565b600e546120d090919063ffffffff16565b81604001818152505061138c89886120ef90919063ffffffff16565b8160600181815250506113a889896120ef90919063ffffffff16565b8160800181815250506113c489876120ef90919063ffffffff16565b8160a001818152505080600b6000600d548152602001908152602001600020600082015181600001556020820151816001015560408201518160020155606082015181600301556080820151816004015560a082015181600501559050508060400151600e81905550600d6000815480929190600101919050555050505050505050505050565b61145361154c565b6114c5576040517f08c379a00000000000000000000000000000000000000000000000000000000081526004018080602001828103825260208152602001807f4f776e61626c653a2063616c6c6572206973206e6f7420746865206f776e657281525060200191505060405180910390fd5b600f60009054906101000a900473ffffffffffffffffffffffffffffffffffffffff1673ffffffffffffffffffffffffffffffffffffffff16ff5b600060016009016000838152602001908152602001600020600001549050919050565b60008060009054906101000a900473ffffffffffffffffffffffffffffffffffffffff16905090565b60008060009054906101000a900473ffffffffffffffffffffffffffffffffffffffff1673ffffffffffffffffffffffffffffffffffffffff163373ffffffffffffffffffffffffffffffffffffffff1614905090565b600d5481565b600080600073ffffffffffffffffffffffffffffffffffffffff16600f60009054906101000a900473ffffffffffffffffffffffffffffffffffffffff1673ffffffffffffffffffffffffffffffffffffffff1663cf192ea2336040518263ffffffff1660e01b8152600401808273ffffffffffffffffffffffffffffffffffffffff1673ffffffffffffffffffffffffffffffffffffffff16815260200191505060206040518083038186803b15801561166357600080fd5b505afa158015611677573d6000803e3d6000fd5b505050506040513d602081101561168d57600080fd5b810190808051906020019092919050505073ffffffffffffffffffffffffffffffffffffffff161415611728576040517f08c379a00000000000000000000000000000000000000000000000000000000081526004018080602001828103825260158152602001807f43616c6c6572206973206e6f742056696c6c616765000000000000000000000081525060200191505060405180910390fd5b611730611eb8565b611738611f4b565b600060016005015485106117de576001905083600160000154101561176f5760006001600001819055506001600001549250611794565b61178784600160000154611e9e90919063ffffffff16565b6001600001819055508392505b83600180015410156117b65760006001800181905550600180015491506117d9565b6117cd846001800154611e9e90919063ffffffff16565b60018001819055508391505b6117eb565b6000905060009250600091505b7f3ad5e3597d153d8e5e5ed376cdb7e5c4a7fb5a1a2039af3d039d5f2b7fc185588630858585604051808673ffffffffffffffffffffffffffffffffffffffff1673ffffffffffffffffffffffffffffffffffffffff1681526020018573ffffffffffffffffffffffffffffffffffffffff1673ffffffffffffffffffffffffffffffffffffffff168152602001848152602001838152602001821515151581526020019550505050505060405180910390a150935093915050565b3373ffffffffffffffffffffffffffffffffffffffff16600f60009054906101000a900473ffffffffffffffffffffffffffffffffffffffff1673ffffffffffffffffffffffffffffffffffffffff1663cf192ea2306040518263ffffffff1660e01b8152600401808273ffffffffffffffffffffffffffffffffffffffff1673ffffffffffffffffffffffffffffffffffffffff16815260200191505060206040518083038186803b15801561195d57600080fd5b505afa158015611971573d6000803e3d6000fd5b505050506040513d602081101561198757600080fd5b810190808051906020019092919050505073ffffffffffffffffffffffffffffffffffffffff1614611a21576040517f08c379a00000000000000000000000000000000000000000000000000000000081526004018080602001828103825260198152602001807f55736572206973206e6f742056696c6c616765206f776e65720000000000000081525060200191505060405180910390fd5b600073ffffffffffffffffffffffffffffffffffffffff16600f60009054906101000a900473ffffffffffffffffffffffffffffffffffffffff1673ffffffffffffffffffffffffffffffffffffffff1663cf192ea2836040518263ffffffff1660e01b8152600401808273ffffffffffffffffffffffffffffffffffffffff1673ffffffffffffffffffffffffffffffffffffffff16815260200191505060206040518083038186803b158015611ad857600080fd5b505afa158015611aec573d6000803e3d6000fd5b505050506040513d6020811015611b0257600080fd5b810190808051906020019092919050505073ffffffffffffffffffffffffffffffffffffffff161415611b9d576040517f08c379a000000000000000000000000000000000000000000000000000000000815260040180806020018281038252600f8152602001807f496e76616c69642076696c6c616765000000000000000000000000000000000081525060200191505060405180910390fd5b3373ffffffffffffffffffffffffffffffffffffffff16600f60009054906101000a900473ffffffffffffffffffffffffffffffffffffffff1673ffffffffffffffffffffffffffffffffffffffff1663cf192ea2836040518263ffffffff1660e01b8152600401808273ffffffffffffffffffffffffffffffffffffffff1673ffffffffffffffffffffffffffffffffffffffff16815260200191505060206040518083038186803b158015611c5357600080fd5b505afa158015611c67573d6000803e3d6000fd5b505050506040513d6020811015611c7d57600080fd5b810190808051906020019092919050505073ffffffffffffffffffffffffffffffffffffffff161415611d18576040517f08c379a000000000000000000000000000000000000000000000000000000000815260040180806020018281038252601d8152602001807f557365722043616e27742061747461636b206f776e2076696c6c61676500000081525060200191505060405180910390fd5b611d20611eb8565b611d28611f4b565b6000808273ffffffffffffffffffffffffffffffffffffffff1663a9422ae8306001600401546001600601546040518463ffffffff1660e01b8152600401808473ffffffffffffffffffffffffffffffffffffffff1673ffffffffffffffffffffffffffffffffffffffff16815260200183815260200182815260200193505050506040805180830381600087803b158015611dc357600080fd5b505af1158015611dd7573d6000803e3d6000fd5b505050506040513d6040811015611ded57600080fd5b81019080805190602001909291908051906020019092919050505091509150611e24826001600001546120d090919063ffffffff16565b600160000181905550611e45816001600001546120d090919063ffffffff16565b6001800181905550505050565b6000806001600801600084815260200190815260200160002060000154915060016008016000848152602001908152602001600020600101549050915091565b600c5481565b600e5481565b600082821115611ead57600080fd5b818303905092915050565b6000429050611eec611ed860016007015483611e9e90919063ffffffff16565b6001600201546120ef90919063ffffffff16565b600160000160008282540192505081905550611f2d611f1960016007015483611e9e90919063ffffffff16565b6001600301546120ef90919063ffffffff16565b60018001600082825401925050819055508060016007018190555050565b6000600c5490505b600d5481108015611f79575042600b600083815260200190815260200160002060020154105b156120cd57611fac600b6000838152602001908152602001600020600301546001600401546120d090919063ffffffff16565b600160040181905550611fe3600b6000838152602001908152602001600020600401546001600501546120d090919063ffffffff16565b60016005018190555061201a600b6000838152602001908152602001600020600501546001600601546120d090919063ffffffff16565b60016006018190555061207b600b60008381526020019081526020016000206001015460016009016000600b6000868152602001908152602001600020600001548152602001908152602001600020600001546120d090919063ffffffff16565b60016009016000600b600085815260200190815260200160002060000154815260200190815260200160002060000181905550600c600081548092919060010191905055508080600101915050611f53565b50565b6000808284019050838110156120e557600080fd5b8091505092915050565b6000808314156121025760009050612123565b600082840290508284828161211357fe5b041461211e57600080fd5b809150505b92915050565b6040518060c00160405280600081526020016000815260200160008152602001600081526020016000815260200160008152509056fea165627a7a723058206de094a469a84dc218a1be84dab223c792b5bd3235069c1b93abd951e6a0a4de0029",
  "source": "pragma solidity ^0.5.0;\r\nimport \"./Ownable.sol\";\r\nimport \"./ICityClash.sol\";\r\nimport \"./SafeMath.sol\";\r\n\r\n/**\r\n * @title Village\r\n * contract to store user village details\r\n */\r\ncontract Village is Ownable{\r\n    using SafeMath for uint256;\r\n    struct TroopsModel{\r\n        uint256 Count;\r\n    }\r\n    struct BuildingModel{\r\n        uint256 Level;\r\n        uint256 CoolOff;\r\n    }\r\n    struct UserModel{\r\n        uint256 Gold;\r\n        uint256 Elixr;\r\n        uint256 GoldRate;\r\n        uint256 ElixrRate;\r\n        uint256 Attack;\r\n        uint256 Defence;\r\n        uint256 Steal;\r\n        uint256 TimeStamp;\r\n        mapping(uint256 => BuildingModel) Buildings;\r\n        mapping(uint256 => TroopsModel) Troops;\r\n    }\r\n    UserModel public UserDetails;\r\n    struct QueueModel{\r\n        uint256 ID;\r\n        uint256 Count;\r\n        uint256 Time;\r\n        uint256 Attack;\r\n        uint256 Defence;\r\n        uint256 Steal;\r\n    }\r\n    mapping(uint256 => QueueModel) public  TroopsQueue;\r\n    uint256 public CompletedQueue;\r\n    uint256 public TotalQueue;\r\n    uint256 public completionTime;\r\n    address payable private CCgame;\r\n    event Battle(\r\n       address attacker,\r\n       address defender,\r\n       uint256 Gold,\r\n       uint256 Elixr,\r\n       bool success\r\n    );\r\n    constructor(address payable _CCgame) public{\r\n        CCgame = _CCgame;\r\n        UserDetails.GoldRate = 1;\r\n        UserDetails.ElixrRate = 1;\r\n        UserDetails.TimeStamp = now;\r\n    }\r\n    // check caller is Village Owner\r\n    modifier isVillageOwner() {\r\n        require(ICityClash(CCgame).GetVillageOwner(address(this)) == msg.sender,\"User is not Village owner\");\r\n        _;\r\n    }\r\n    // check caller is village\r\n    modifier isFromVillage() {\r\n        require(ICityClash(CCgame).GetVillageOwner(msg.sender) != address(0),\"Caller is not Village\");\r\n        _;\r\n    }\r\n    /**\r\n    * function to Upgrade Builing of this village\r\n    * only village owner can execute\r\n    * @param _ID builing ID\r\n    * @param _level upgarade level\r\n    */\r\n    function UpgradeBuilding(uint256 _ID, uint256 _level) public isVillageOwner{\r\n        require(UserDetails.Buildings[_ID].Level == _level.sub(1),\"Invalid Upgrade\");\r\n        (uint256 _RequiredBuilding, uint256 _RequiredLevel, uint256 _RequiredGold, uint256 _RequiredElixr,\r\n        uint256 _RequiredGem, uint256 _GoldRate, uint256 _ElixrRate, uint256 _GemReward, uint256 _Time ) =\r\n        ICityClash(CCgame).GetBuildingUpgrades(_ID,_level);\r\n        require(_Time > 0,\"no upgrades available\");\r\n        require(UserDetails.Buildings[_ID].CoolOff < now, \"Upgrading in Process\");\r\n        require(UserDetails.Buildings[_RequiredBuilding].Level >= _RequiredLevel, \"Building Requirement not met\");\r\n        UpdateUserResources();\r\n        require(UserDetails.Gold >= _RequiredGold && UserDetails.Elixr >= _RequiredElixr,\r\n         \"Resources Requirement not met\");\r\n        UserDetails.Gold = UserDetails.Gold.sub(_RequiredGold);\r\n        UserDetails.Elixr = UserDetails.Elixr.sub(_RequiredElixr);\r\n        if(_RequiredGem > 0){\r\n            require(ICityClash(CCgame).SubGemFromVillage(msg.sender,_RequiredGem),\"No Gem Balance\");\r\n        }\r\n        UpdateUserTroops();\r\n        UserDetails.GoldRate = UserDetails.GoldRate.add(_GoldRate);\r\n        UserDetails.ElixrRate = UserDetails.ElixrRate.add(_ElixrRate);\r\n        UserDetails.Buildings[_ID].Level = _level;\r\n        UserDetails.Buildings[_ID].CoolOff = _Time.add(now);\r\n        if(_GemReward > 0){\r\n            require(ICityClash(CCgame).AddGemFromVillage(msg.sender,_GemReward),\"Something Went Wrong\");\r\n        }\r\n    }\r\n    /**\r\n    * function to Train troop for this village\r\n    * only village owner can execute\r\n    * @param _ID troop ID\r\n    * @param _count number of troop to train\r\n    */\r\n    function TrainTroops(uint256 _ID, uint256 _count) public isVillageOwner{\r\n        (uint256 _Defence, uint256 _Attack, uint256 _Steal, uint256 _RequiredGold,\r\n        uint256 _RequiredElixr, uint256 _RequiredGem, uint256 _Time) =\r\n        ICityClash(CCgame).GetToopsDetails(_ID);\r\n        require(_Time > 0,\"no troop available\");\r\n        UpdateUserResources();\r\n        require(UserDetails.Gold >= _RequiredGold.mul(_count) && UserDetails.Elixr >=\r\n        _RequiredElixr.mul(_count),\"Resources Requirement not met\");\r\n        UserDetails.Gold = UserDetails.Gold.sub(_RequiredGold.mul(_count));\r\n        UserDetails.Elixr = UserDetails.Elixr.sub(_RequiredElixr.mul(_count));\r\n        if(_RequiredGem > 0){\r\n            require(ICityClash(CCgame).SubGemFromVillage(msg.sender,_RequiredGem),\"No Gem Balance\");\r\n        }\r\n        UpdateUserTroops();\r\n        if(completionTime < now){\r\n            completionTime = now;\r\n        }\r\n        QueueModel memory Queue;\r\n        Queue.ID = _ID;\r\n        Queue.Count = _count;\r\n        Queue.Time = completionTime.add(_count.mul(_Time));\r\n        Queue.Attack = _Attack.mul(_count);\r\n        Queue.Defence = _Defence.mul(_count);\r\n        Queue.Steal = _Steal.mul(_count);\r\n        TroopsQueue[TotalQueue] = Queue;\r\n        completionTime = Queue.Time;\r\n        TotalQueue++;\r\n    }\r\n    /**\r\n    * function to update user resources\r\n    * internal call\r\n    */\r\n    function UpdateUserResources() internal{\r\n        uint256 currentTime = now;\r\n        UserDetails.Gold += UserDetails.GoldRate.mul(currentTime.sub(UserDetails.TimeStamp));\r\n        UserDetails.Elixr += UserDetails.ElixrRate.mul(currentTime.sub(UserDetails.TimeStamp));\r\n        UserDetails.TimeStamp = currentTime;\r\n    }\r\n    /**\r\n    * function to update troop training\r\n    * internal call\r\n    */\r\n    function UpdateUserTroops() internal{\r\n        for(uint256 i = CompletedQueue; i < TotalQueue && TroopsQueue[i].Time < now ; i++){\r\n            UserDetails.Attack = UserDetails.Attack.add(TroopsQueue[i].Attack);\r\n            UserDetails.Defence = UserDetails.Defence.add(TroopsQueue[i].Defence);\r\n            UserDetails.Steal = UserDetails.Steal.add(TroopsQueue[i].Steal);\r\n            UserDetails.Troops[TroopsQueue[i].ID].Count = UserDetails.Troops[TroopsQueue[i].ID].Count.add(TroopsQueue[i].Count);\r\n            CompletedQueue++;\r\n        }\r\n    }\r\n    /**\r\n    * function to Get Building details\r\n    * @param _id Building ID\r\n    * @return _Level current building level\r\n    * @return _CoolOff Cool off time for next upgrade\r\n    */\r\n    function GetUpgradeDetails(uint256 _id) public view  returns(uint256 _Level , uint256 _CoolOff){\r\n        _Level = UserDetails.Buildings[_id].Level;\r\n        _CoolOff = UserDetails.Buildings[_id].CoolOff;\r\n    }\r\n    /**\r\n    * function to Get troop detail\r\n    * @param _id troop ID\r\n    * @return _Count trained troop count\r\n    */\r\n    function GetTrainDetails(uint256 _id) public view  returns(uint256 _Count){\r\n        _Count = UserDetails.Troops[_id].Count;\r\n    }\r\n    /**\r\n    * function to Attack Enemy\r\n    * only village owner can execute\r\n    * @param _Enemy Enemy village address\r\n    */\r\n    function AttackEnemy(address _Enemy) public isVillageOwner{\r\n        require(ICityClash(CCgame).GetVillageOwner(_Enemy) != address(0),\"Invalid village\");\r\n        require(ICityClash(CCgame).GetVillageOwner(_Enemy) != msg.sender,\"User Can't attack own village\");\r\n        UpdateUserResources();\r\n        UpdateUserTroops();\r\n        (uint256 _GoldSteal, uint256 _ElixrSteal) = Village(_Enemy).DefenceAttack(address(this),UserDetails.Attack, UserDetails.Steal);\r\n         UserDetails.Gold = UserDetails.Gold.add(_GoldSteal);\r\n         UserDetails.Elixr = UserDetails.Gold.add(_ElixrSteal);\r\n\r\n    }\r\n    /**\r\n    * function to defend attack\r\n    * only another village can execute\r\n    * @param _Attacker attacker village address\r\n    * @param _Attack enemy attack power\r\n    * @param _Steal enemy steal power\r\n    */\r\n    function DefenceAttack(address _Attacker, uint256 _Attack, uint256 _Steal) public\r\n    isFromVillage returns(uint256 _GoldSteal , uint256 _ElixrSteal){\r\n        UpdateUserResources();\r\n        UpdateUserTroops();\r\n        bool success;\r\n        if(_Attack >= UserDetails.Defence){\r\n            success = true;\r\n            if(UserDetails.Gold < _Steal){\r\n                UserDetails.Gold = 0;\r\n                _GoldSteal = UserDetails.Gold;\r\n            }else{\r\n                UserDetails.Gold = UserDetails.Gold.sub(_Steal);\r\n                _GoldSteal = _Steal;\r\n            }\r\n            if(UserDetails.Elixr < _Steal){\r\n                UserDetails.Elixr = 0;\r\n                _ElixrSteal = UserDetails.Elixr;\r\n            }else{\r\n                UserDetails.Elixr = UserDetails.Elixr.sub(_Steal);\r\n                _ElixrSteal = _Steal;\r\n            }\r\n        }else{\r\n            success = false;\r\n            _GoldSteal = 0;\r\n            _ElixrSteal = 0;\r\n        }\r\n        emit Battle(_Attacker,address(this),_GoldSteal,_ElixrSteal,success);\r\n    }\r\n     /**\r\n    * function to destroy village\r\n    * only owner can call\r\n    */\r\n    function DestroyVillage() external onlyOwner{\r\n        selfdestruct(CCgame);\r\n    }\r\n\r\n}",
  "sourcePath": "E:\\KBA\\ethereum\\project\\Docker\\Truffle\\contracts\\Village.sol",
  "compiler": {
    "name": "solc",
    "version": "0.5.8+commit.23d335f2.Emscripten.clang"
  },
  "schemaVersion": "3.0.11",
  "updatedAt": "2019-09-12T13:16:28.217Z",
  "devdoc": {
    "methods": {
      "AttackEnemy(address)": {
        "params": {
          "_Enemy": "Enemy village address\r"
        }
      },
      "DefenceAttack(address,uint256,uint256)": {
        "params": {
          "_Attack": "enemy attack power\r",
          "_Attacker": "attacker village address\r",
          "_Steal": "enemy steal power\r"
        }
      },
      "GetTrainDetails(uint256)": {
        "params": {
          "_id": "troop ID\r"
        },
        "return": "_Count trained troop count\r"
      },
      "GetUpgradeDetails(uint256)": {
        "params": {
          "_id": "Building ID\r"
        },
        "return": "_Level current building level\r_CoolOff Cool off time for next upgrade\r"
      },
      "TrainTroops(uint256,uint256)": {
        "params": {
          "_ID": "troop ID\r",
          "_count": "number of troop to train\r"
        }
      },
      "UpgradeBuilding(uint256,uint256)": {
        "params": {
          "_ID": "builing ID\r",
          "_level": "upgarade level\r"
        }
      },
      "isOwner()": {
        "details": "Returns true if the caller is the current owner.\r"
      },
      "owner()": {
        "details": "Returns the address of the current owner.\r"
      }
    },
    "title": "Village\r contract to store user village details\r"
  },
  "userdoc": {
    "methods": {
      "AttackEnemy(address)": {
        "notice": "function to Attack Enemy\r only village owner can execute\r"
      },
      "DefenceAttack(address,uint256,uint256)": {
        "notice": "function to defend attack\r only another village can execute\r"
      },
      "DestroyVillage()": {
        "notice": "function to destroy village\r only owner can call\r"
      },
      "GetTrainDetails(uint256)": {
        "notice": "function to Get troop detail\r"
      },
      "GetUpgradeDetails(uint256)": {
        "notice": "function to Get Building details\r"
      },
      "TrainTroops(uint256,uint256)": {
        "notice": "function to Train troop for this village\r only village owner can execute\r"
      },
      "UpgradeBuilding(uint256,uint256)": {
        "notice": "function to Upgrade Builing of this village\r only village owner can execute\r"
      }
    }
  }
}